:020000040800F2
:10400000FFFF0120598502083129010833290108E1
:10401000852A0108C92A01080D2B010800000000AB
:1040200000000000000000000000000051D7000860
:10403000512B010800000000E5D700082D290108D8
:104040009D8502089D8502089D8502089D850208C0
:104050009D8502089D850208C3270108D327010812
:10406000E3270108F327010801280108393901086D
:104070009D8502085D3901089D8502089D8502081D
:10408000532B01089D8502089D8502089D85020825
:104090009D8502089D8502089D8502081928010852
:1040A0009D8502089D8502089D8502089D85020860
:1040B0009D8502089D8502089D8502082D3901080D
:1040C000213901089D8502089D8502089D85020809
:1040D0009D8502089D8502089D850208B54101085D
:1040E000912801089D8502089D8502089D8502088A
:1040F0009D850208894301089D8502089D85020867
:104100009D8502089D8502089D8502089D850208FF
:104110009D8502089D8502089D850208F56E0108AF
:10412000A92802089D8502089D8502089D85020830
:104130009D8502089D8502089D8502089D850208CF
:104140009D8502089D8502089D850208F5F60008F8
:10415000412802089D8502088D4001088940010818
:1041600051390108453901089D8502089D850208DD
:104170009D8502089D8502089D8502089D8502088F
:084180009D8502089D850208DF
:1041C00000B551EC100B2C4A21F00043934285B00E
:1041D00020DD2A4A934209DD10EE102A0B4604F036
:1041E0003DFA41EC100B05B05DF804FB684601F0A8
:1041F000C3FA00F00300012817D002282FD028B3FB
:1042000001209DED021B9DED000B02F051FF51ECD2
:10421000100BE6E79FED161B02F0EEF951EC100BC8
:1042200041EC100B05B05DF804FB9DED021B9DED0C
:10423000000B02F03DFF53EC102B10EE100A03F1BF
:10424000004141EC100B05B05DF804FB9DED021B35
:104250009DED000B02F0D0F951EC100BC1E79DED84
:10426000021B9DED000B02F0C7F9E4E7AFF30080FD
:104270000000000000000000FB21E93FFFFFEF7F8E
:1042800000B551EC100B2C4A21F00043934285B04D
:1042900027DD2A4A934209DD10EE102A0B4604F06E
:1042A000DDF941EC100B05B05DF804FB684601F048
:1042B00063FA00F0030001281FD0022830D028B391
:1042C0009DED021B9DED000B02F096F953EC102BB7
:1042D00010EE100A03F1004141EC100B05B05DF83F
:1042E00004FB00209FED121B02F0E2FE51EC100BCC
:1042F00041EC100B05B05DF804FB9DED021B9DED3C
:10430000000B02F079F951EC100BCAE701209DED8A
:10431000021B9DED000B02F0CBFE51EC100BC0E731
:1043200001209DED021B9DED000B02F0C1FECDE7CB
:104330000000000000000000FB21E93FFFFFEF7FCD
:1043400038B510EE105A25F00044B4F1A14FF0EE4C
:10435000407A0BDBB4F1FF4F56DCDFED4E7A9FED78
:104360004E0A002DC8BFB0EE670A38BD4B4B9C42C9
:104370005CDCB4F1445F4ADB4FF0FF3267EEA76AC2
:10438000DFED471ADFED472A9FED472A9FED473AB9
:10439000DFED473A9FED474ADFED474A9FED475A29
:1043A000DFED475A9FED470A9FED476A26EEA67A52
:1043B000531CE7EE212AA7EE023AE2EE873AA3EE7B
:1043C000074AE3EE874AA4EE075AE4EE875AA5EEC1
:1043D000070AA5EE876A20EE070AA6EE260A20EE57
:1043E000270A20D0394B03EB8203D3ED046A93ED07
:1043F000007A30EE660A002D70EE677A37EE670AB3
:10440000B3DAB1EE400A38BD30EE000A38BD9FED98
:10441000307A30EE077AF7EE006AB4EEE67AF1EE23
:1044200010FAA9DD38BD37EEC00A38BD00F09EF89D
:10443000284B9C420FDCA3F5D0039C4220DCF0EE1D
:10444000007ABFEE007AA0EE277A002230EE270A2B
:10445000C7EE007A92E7204B9C420BDCF7EE087A1D
:10446000B7EE007AA0EE277A022230EE670AC0EE9D
:10447000077A83E7BFEE007AC7EE007A03227DE772
:10448000F7EE007A30EE677A30EE270A0122C7EEA7
:10449000007A73E7DB0FC93FDB0FC9BFFFFFDF3EC9
:1044A000D769853C59DA4B3D21A215BD6BF16EBD34
:1044B000356B883D95879DBD6E2EBA3D388EE3BD28
:1044C0002549123ECDCC4CBEABAAAA3EB48602080A
:1044D000CAF24971FFFF973FFFFF1B4000B510EE86
:1044E000103A204A23F00043934283B019DDB3F120
:1044F000FF4F04DB30EE400A03B05DF804FB684672
:1045000001F028FF00F00300012811D002281FD07D
:10451000B8B10120DDED010A9DED000A03F046FA75
:10452000EAE7DFED110A02F08DFE03B05DF804FB4F
:10453000DDED010A9DED000A03F038FAB1EE400A04
:10454000DAE7DDED010A9DED000A02F07BFED3E71C
:10455000DDED010A9DED000A02F074FEB1EE400AA5
:10456000CAE700BFD80F493F0000000010EE103A24
:1045700023F0004300EE103A704700BF08B52DED60
:10458000028BB0EE608AF0EE408A00F033F820B97A
:10459000B0EE480ABDEC028B08BDB0EE480A00F050
:1045A00029F820B1F4EEC88AF1EE10FAF0DDB0EE91
:1045B000680ABDEC028B08BD08B52DED028BB0EE8C
:1045C000608AF0EE408A00F015F820B9B0EE480A93
:1045D000BDEC028B08BDB0EE480A00F00BF820B12C
:1045E000F4EEC88AF1EE10FAF0D5B0EE680ABDEC30
:1045F000028B08BD10EE103A33F000400ED0A0F54B
:104600000003B3F1FE4F0DD3074B421E9A4207D968
:10461000A0F1FF40B0FA80F04009704702207047D7
:104620000320704704207047FEFF7F0000B510EEA6
:10463000103A214A23F00043934283B01ADDB3F1CC
:10464000FF4F04DB30EE400A03B05DF804FB684620
:1046500001F080FE00F00300012813D0022820D0D2
:10466000B8B1DDED010A9DED000A02F0EBFDB1EEFF
:10467000400AE9E70020DFED110A03F097F903B0E3
:104680005DF804FBDDED010A9DED000A02F0DAFDA4
:10469000DAE70120DDED010A9DED000A03F086F95D
:1046A000D2E70120DDED010A9DED000A03F07EF95D
:1046B000B1EE400AC8E700BFD80F493F0000000034
:1046C00000B510EE103A134A23F00043934283B032
:1046D00018DDB3F1FF4F04DB30EE400A03B05DF8A4
:1046E00004FB684601F036FE400000F00200C0F115
:1046F0000100DDED010A9DED000A03F09FF903B012
:104700005DF804FB0120DFED040A03F097F903B024
:104710005DF804FBDA0F493F0000000000F0D8B953
:10472000F8B52DED028B57EC106B55EC114B00F0EA
:10473000B7FA614BB0EE408AF0EE608A93F9003030
:1047400001332AD022462B462046294604F0D8FBC6
:1047500018BB32463B463046394604F0D1FB0028B0
:1047600044D1002200233046394604F097FBD8B1EB
:10477000002200232046294604F090FB00283DD16A
:1047800045EC104B03F0F0FB38B1204629460022DF
:10479000002304F08DFB00285BD1B0EE480AF0EE58
:1047A000680ABDEC028BF8BDB0EE480AF0EE680A6C
:1047B00003F0DAFB58B30022002351EC180B04F08D
:1047C0006DFB0028E9D047EC106B03F0CDFB00280F
:1047D000E3D045EC104B03F0C7FB0028DDD004F01C
:1047E00031FF222303609FED2C8BD6E7204629461C
:1047F0000022002304F052FB0028CED09FED288B2E
:10480000B0EE480AF0EE680ABDEC028BF8BD47EC4A
:10481000106B03F0A9FB0028CDD045EC104B03F042
:10482000A3FB0028C7D053EC182B18EE100A19462A
:1048300004F066FB18BB04F005FF2223036000228E
:1048400000233046394604F033FB48B99FED168B00
:10485000A3E704F0F7FE212303609FED158B9CE78F
:1048600045EC104B03F014FC22462B4651EC100B88
:1048700004F014FB0028E9D19FED0D8B8DE704F0C7
:10488000E1FE00220023212101601046194604F0B8
:10489000C7F941EC180B80E70000000000000000A1
:1048A000000000000000F03F000000000000F07F6A
:1048B000000000000000F0FF0000002038B52DEDE2
:1048C000028B55EC104B01F06DF9184BB0EE408A9D
:1048D000F0EE608A93F9003001330DD022462B466A
:1048E0002046294604F00CFB30B920462946002218
:1048F000002304F0DDFA30B9B0EE480AF0EE680AA1
:10490000BDEC028B38BD04F09DFE00220023212166
:1049100001601046194604F083F941EC180BB0EE23
:10492000480AF0EE680ABDEC028B38BD000000209A
:1049300008B52DED028BB0EE408A01F0FFF9134B64
:1049400093F900300133F0EE408A0FD0B4EE488A7C
:10495000F1EE10FA0AD6B0EE480AFFF707FEF7EEBE
:10496000007AB4EEE70AF1EE10FA04DCB0EE680A61
:10497000BDEC028B08BD04F065FEBDEC028B21236B
:1049800003600348BDE8084003F0F2BC00000020CB
:1049900058DB020801F0CEBA08B52DED028BB0EE5F
:1049A000408A01F085FB164B93F900300133F0EE9D
:1049B000408A12D0B0EE480A03F08CFC68B1DFEDFB
:1049C000117AB4EEE78AF1EE10FA12DCDFED0E7A1E
:1049D000B4EEE78AF1EE10FA04D4B0EE680ABDEC4A
:1049E000028B08BD04F02EFE2223DFED088A03604F
:1049F000F3E704F027FE22230360DFED058AECE7EE
:104A0000000000208071B142B5F1CFC2000000006B
:104A10000000807F08B52DED028BB0EE408A01F0DA
:104A200039FC144B93F90030013314D0B4EE488AAA
:104A3000F1EE10FA0FD6B5EEC08AF1EE10FA0AD8F0
:104A4000B5EE408AF1EE10FA08D104F0FBFD222306
:104A50009FED090A0360BDEC028B08BD04F0F2FD76
:104A6000BDEC028B212303600448BDE8084003F03D
:104A70007FBC00BF00000020000080FF58DB020860
:104A800008B52DED028BB0EE408A01F0AFFD0E4B64
:104A900093F9003001330BD0B4EE488AF1EE10FAEE
:104AA00006D6DFED0A8AB4EEE88AF1EE10FA02D4F7
:104AB000BDEC028B08BD04F0C5FD88EEA80ABDEC74
:104AC000028B2123036008BD0000002000000000CD
:104AD00051EC110B43422DE9F047034321F0004E06
:104AE0006D4F4EEAD373BB4255EC104B1ED8634258
:104AF000234325F0004A4AEAD373BB42A94615D89E
:104B000001F1404303F5801303434BD08E1706F0A9
:104B100002065AEA040346EAD5760FD1022E45D0A2
:104B2000032E38D14AA1D1E9000103E022462B46E9
:104B300003F096FD41EC100BBDE8F0875EEA000340
:104B400022D0BE453AD0BA451ED0AAEB0E0E4FEA8F
:104B50002E5EBEF13C0F2DDC00293FDA1EF13C0F2A
:104B60003CDA00200021012E54D0022E45D0002E28
:104B7000E0D039A3D3E9002303F070FD38A3D3E9D3
:104B8000002303F06BFDD5E7B9F1000F22DB36A15E
:104B9000D1E90001CEE710EE100A294641EC100BD6
:104BA000BDE8F087BDE8F04703F02EB82CA1D1E9AD
:104BB0000001BFE72CA1D1E90001D4E7F2452DD0D7
:104BC000022EF3D0032EADD0012E4FF000002FD0D7
:104BD0000021AFE726A1D1E90001ABE702460B4671
:104BE0002046294604F01CF841EC100B03F0B2F902
:104BF00003F00AF851EC100BB5E717A3D3E9002333
:104C000003F02CFD02460B4615A1D1E9000103F08B
:104C100025FD8FE701F1004319468BE7022E12D0E4
:104C2000032E0CD0012E06D013A1D1E9000181E79B
:104C30004FF000417EE712A1D1E900017AE712A10D
:104C4000D1E9000176E712A1D1E9000172E700BFC6
:104C5000182D4454FB2109C0075C143326A6A13C3F
:104C6000182D4454FB210940182D4454FB21F93FD1
:104C7000182D4454FB21F9BF182D4454FB21E93F62
:104C8000182D4454FB21E9BFD221337F7CD902C0C7
:104C9000D221337F7CD902400000F07F0000000069
:104CA0002DE9F04F51EC110B21F0004555EA0003BE
:104CB00093B03DD059EC108B694B29F000449C42D5
:104CC0004E4610EE10AA2CDC0F4611EE10CA36D05C
:104CD0009D4226DC624B9D4220D0002ECDE9000192
:104CE00038DB4FF0000BBCF1000F4ED15C4B9D4206
:104CF00000F094805B4B9D4200F0A180B7F1804FA3
:104D000000F09E84584B9F423FD1002E3DDB49EC82
:104D1000108B13B0BDE8F04F00F044BFBCF1000FA2
:104D2000DBD004F1404404F5801454EA0A030BD1AB
:104D30004C49002041EC100B13B0BDE8F08FB8F1E6
:104D4000000F01D1A542C5DD484813B0BDE8F04FC2
:104D500003F096B9464B9D4277DCA3F154739D4214
:104D60000EDD2B15A3F2FF33142B40F37184C3F136
:104D700034032CFA03F202FA03F3634500F0B7841C
:104D80004FF0000BBCF1000FB4D049EC108B03F0D6
:104D9000E1F851EC100BBAF1000F22D124B1314BE4
:104DA00026F040429A421CD1002F05DA02460B46FB
:104DB00000202C4903F034FF002EBBDA04F14044FC
:104DC00004F5801454EA0B0340F0648402460B4659
:104DD0001046194603F042FC02460B4603F020FF42
:104DE000A8E7F30F03F1FF3A5BEA0A0330D0214B47
:104DF0009D4243DD03F104739D4240F3AF831E4B9C
:104E00009C4240F33B83002F40F33B8312A3D3E942
:104E100000231046194603F0D9FD8BE704F1404307
:104E200003F5801353EA0A0382D0134B9C4240F3EC
:104E30005383002FC0F22583DDE900017AE7002FBC
:104E4000C0F2F6834046494674E74FF0020B4AE74A
:104E500042464B46BCE700BF9C7500883CE4377E69
:104E60000000F07F0000F03F0000E03F58DB020848
:104E7000FFFF3F430000E041FFFFEF3FD24B3340D5
:104E8000002B40F0D3830022D04B03F09FFD6FF046
:104E900034060C462315CE4AC4F31304A3F2FF33A1
:104EA00044F07F559E1994420D9645F4401540F309
:104EB000B083C84B9C4240F3F6839FEDAD7B8DEDF4
:104EC000087B8DED107B9FEDAC7B8DED067B013675
:104ED0000D96A5F580154FF00008DDE9062329465B
:104EE000064603F0BBFBDDE90623CDE90A013046A7
:104EF000294603F0B5FB02460B460020B64903F0F5
:104F00008FFE03460C46CDE90E3402460B46DDE922
:104F10000A0103F05BFD6B1043F0005303F500231F
:104F20000A462F46014603EB08050023CDE902128D
:104F30000293DDE902890024CDE904122B462246C2
:104F40004046494603F042FD02460B46DDE90A01B0
:104F500003F084FBDDE90623CDE90A01204629465A
:104F600003F07CFB02460B463046394603F076FBE5
:104F700042464B4603F02AFD02460B46DDE90A0194
:104F800003F06CFBDDE90E2303F020FDDDE90445B1
:104F9000CDE9060122462B462046294603F016FDA0
:104FA00077A3D3E9002304460D4603F00FFD76A353
:104FB000D3E9002303F054FB22462B4603F006FD01
:104FC00073A3D3E9002303F04BFB22462B4603F0E7
:104FD000FDFC71A3D3E9002303F042FB22462B46DC
:104FE00003F0F4FC6EA3D3E9002303F039FB22465F
:104FF0002B4603F0EBFC6CA3D3E9002303F030FB5A
:10500000224606460F462B462046294603F0DEFC84
:1050100002460B463046394603F0D8FC4246044669
:105020000D464B46DDE9040103F01AFBDDE90623DA
:1050300003F0CCFC22462B4603F012FB4246064608
:105040000F464B464046494603F0C0FC0022634BE6
:10505000CDE90A0103F004FB32463B4603F000FBB6
:1050600002980D46044622462B464046494603F028
:10507000ADFC002280468946584B2046294603F065
:10508000EDFADDE90A2303F0E9FA02460B46304661
:10509000394603F0E3FADDE9042303F097FC2246E6
:1050A00006460F462B46DDE9060103F08FFC02465B
:1050B0000B463046394603F0D3FA06460F46024601
:1050C0000B464046494603F0CBFA029838A3D3E991
:1050D000002304460D4603F079FC4246CDE9040165
:1050E0004B462046294603F0B9FA02460B463046A5
:1050F000394603F0B3FA30A3D3E9002303F066FC8A
:105100002FA3D3E9002306460F462046294603F085
:105110005DFC02460B463046394603F0A1FADDE954
:10512000102303F09DFA04460D980D4603F0E4FBAE
:10513000224606460F462B46DDE9040103F090FAAD
:10514000DDE9082303F08CFA32463B4603F088FA87
:10515000029832463B468046894603F07FFADDE9F5
:10516000082303F07BFADDE9042339E0AFF3008084
:105170000000000000000000000000000000F03F00
:10518000EF4E454A287ECA3F65DBC9934A86CD3F2C
:1051900001411DA96074D13F4D268F515555D53F12
:1051A000FFAB6FDBB66DDB3F033333333333E33FAA
:1051B000000000E009C7EE3FFD033ADC09C7EE3FFF
:1051C000F5015B14E02F3EBE0000F07F000040437D
:1051D0008E98030079B60B000000F03F00000840F5
:1051E00003F03CFA0B4602462946204603F036FA05
:1051F0000BF1FF3353EA0A03CDE9020140F0678166
:105200009FEDB97B8DED047BDDE900230026104680
:10521000194632461F4603F021FA42464B4603F038
:10522000D5FBDDE9002382468B46DDE9020103F070
:10523000CDFB02460B465046594603F011FA324662
:105240008B4682463B4640464946CDE900AB03F0DB
:10525000BDFB0B460246804689465046594603F040
:10526000FFF9B94B994204460D468B4640F30C8139
:1052700001F13F4303F5E003034340F0FD819CA3AC
:10528000D3E90023DDE9000103F0EAF942460646CE
:105290000F464B462046294603F0E0F902460B46EE
:1052A0003046394603F022FE002840F0E581CBF37A
:1052B0000A534FF48012A3F2FE3342FA03F35B4425
:1052C000C3F30A52A14DA2F2FF321541C3F31304F6
:1052D00023EA05010020C2F1140A44F48014BBF152
:1052E000000F02460B4644FA0AFA40464946B8BF48
:1052F000CAF1000A03F0B2F9804689464246DDE968
:1053000000014B4603F0ACF94FEA0A5B0D4600245E
:1053100079A3D3E900232046294603F057FB4246F0
:1053200006460F464B462046294603F097F90246AB
:105330000B46DDE9000103F091F971A3D3E90023E5
:1053400003F044FB70A3D3E900238046894620463E
:10535000294603F03BFB02460B464046494603F014
:105360007FF98046894602460B463046394603F0AF
:1053700077F932463B4604460D4603F06FF9024684
:105380000B464046494603F069F922468046894665
:105390002B462046294603F019FB5DA3D3E90023E1
:1053A00006460F4603F012FB5BA3D3E9002303F08C
:1053B00055F932463B4603F009FB59A3D3E90023D4
:1053C00003F04EF932463B4603F000FB56A3D3E907
:1053D000002303F043F932463B4603F0F7FA54A3A7
:1053E000D3E9002303F03CF932463B4603F0EEFAE2
:1053F00002460B462046294603F030F906460F4682
:1054000002460B462046294603F0E0FA0022CDE989
:1054100000014FF080433046394603F01FF9024641
:105420000B46DDE9000103F0FBFB424606460F4652
:105430004B462046294603F0C9FA42464B4603F044
:105440000FF902460B463046394603F007F922466B
:105450002B4603F003F902460B4600203C4903F0BB
:10546000FDF88B44BBF5801F02460B46C0F2378126
:105470005946DDE9042303F0A9FA5BE4002FFFF6A7
:10548000C5AC0020002155E4DFF8CCC021F000437A
:10549000634540F3EB802F4B0B4403430AD1424654
:1054A0004B4603F0DBF8DDE9002303F015FD00288F
:1054B0003FF4FDAEDDE904011FA3D3E9002303F0AF
:1054C00085FA1DA3D3E9002303F080FA32E49FEDAF
:1054D0001C7B8DED047B97E6002FD2DADDE90034EA
:1054E000184604F1004125E4000000000000F0BF70
:1054F000FE822B654715973C00000000432EE63FD7
:10550000EF39FAFE422EE63F396CA80C615C20BEF2
:10551000D0A4BE726937663EF16BD2C541BDBB3EB9
:105520002CDE25AF6A56113F93BDBE166CC1663F97
:105530003E5555555555C53F59F3F8C21F6EA50147
:10554000000000000000F03FFFFF8F40FFFF0F0052
:105550000000F03F00346F3FFFCB9040824B9C42F5
:105560008CDD824B9C423FF74EAC00227F4B03F018
:1055700075F869A3D3E9002304460D4603F026FA23
:1055800067A3D3E9002306460F462046294603F0C9
:105590001DFA002280468946754B2046294603F0B5
:1055A00015FA02460B4660A1D1E9000103F056F856
:1055B00022462B4603F00AFA02460B4600206D49AC
:1055C00003F04CF82246CDE902012B46204629463D
:1055D00003F0FCF902460B46DDE9020103F0F6F99F
:1055E00053A3D3E9002303F0F1F902460B464046EA
:1055F000494603F033F802460B4604460D46304652
:10560000394603F02DF800208046894632463B4655
:10561000E6E59FED497B8DED087B8DED107B9FEDE1
:10562000487B4FF000088DED067B56E4002631E400
:1056300042464B4600204D4903F0F2FAFFF77ABB91
:1056400042464B464046494603F0C0F9FFF772BB5D
:10565000BCF1000F36D1C3F1140345FA03F202FA8C
:1056600003F3AB424DD0E346FFF744BB414A9342BC
:105670004DDCB346B2464AE6DDE9040132A3D3E984
:10568000002303F0A3F930A3D3E9002303F09EF92C
:10569000FFF750BBBBF1010F7FF44CAB01F10043AE
:1056A0001946FFF747BB9FED2A7B8DED087B9FEDE9
:1056B0002A7B8DED107B9FED2A7B4FF480288DEDAA
:1056C000067B0AE449EC108B02F044FC51EC100B11
:1056D000BAF1000F7FF4BCABD346FFF75FBB504677
:1056E00043EC102B02F064FD51EC100BC1E602F00C
:1056F0000102C2F1020BBCF1000F3FF4FBAAFFF75D
:1057000044BB02F00102C2F1020BFFF7F3BA1B1512
:10571000CFE500BFAFF30080000000604715F73F02
:1057200044DF5DF80BAE543E555555555555D53FA4
:10573000FE822B654715F73F0000000000000000C7
:10574000000000000000F03F9C7500883CE4377EBC
:105750000000004003B8E23F06D0CF43EBFD4C3ED3
:10576000000000000000F83FFEFFEF3F0000F03FA8
:105770000000D03F0000E03F2DE9F04F53EC102B2C
:10578000974923F000458D428FB040F387809549BB
:105790008D421E46044629DC002E194610EE100AE2
:1057A00085A3D3E9002340F3AA8102F057FF8E4B73
:1057B0009D4206460F4600F0878081A3D3E900236F
:1057C00002F04CFF02460B46C4E90023394630463E
:1057D00002F044FF7AA3D3E9002302F03FFFC4E9BB
:1057E0000201012738460FB0BDE8F08F7F498D4296
:1057F00040F38A807E498D425BDC2F15A7F2164765
:1058000010EE100AA5EB07519046894603F08EFB77
:1058100003F072F882468B464046494652465B4644
:10582000CDE908AB02F01AFF0022724B03F0CEF86C
:105830008946804603F07AFB054603F05DF8024690
:105840000B4640464946CDE90A2302F007FF0022F5
:10585000684B03F0BBF800220023CDE90C0103F0F4
:105860001DFB002800F04981002D0CBF01230223FD
:10587000614A019202213A46009108A8214600F0AF
:10588000FFFF002E0746ADDA6268E36802F10042CE
:1058900003F1004347426260E360A3E70024002570
:1058A000002780ED000BC0E9024538460FB0BDE887
:1058B000F08F10EE100A194602F0D0FE0027C4E95E
:1058C0000201C4E900018DE73FA3D3E9002302F000
:1058D000C5FE3FA3D3E9002306460F4602F0BEFEF5
:1058E00002460B46C4E900233046394602F0B6FEB4
:1058F00037A3D3E9002302F0B1FE0127C4E9020176
:1059000038460FB0BDE8F08F02F024FB59EC108B45
:1059100010EE100A30A3D3E90023494603F056F8ED
:105920000022364B02F09CFE03F000FB074602F01B
:10593000E3FF21A3D3E90023CDE9040103F046F8F6
:1059400002460B464046494602F088FE1CA3D3E9B6
:10595000002382468B46DDE9040103F037F81F2F50
:10596000CDE902014EDC02460B465046594602F094
:1059700075FE234B7A1E804653F82230AB4289468F
:1059800048D042464B46C4E900895046594602F089
:1059900065FEDDE9022302F061FE002EC4E902018A
:1059A000BFF620AF09F1004501F100437F42C4E991
:1059B0000085C4E9020315E700004054FB21F93FCC
:1059C0003163621A61B4D03D0000601A61B4D03D09
:1059D0007370032E8A19A33B83C8C96D305FE43FFF
:1059E000FB21E93F7BD90240FB21F93FFB213941F3
:1059F000FFFFEF7F00007041548702080000E03F86
:105A0000D4860208DDE902235046594602F026FEFC
:105A1000804689462D15C9F30A53EB1A102BB0DDC9
:105A200057A3D3E90023DDE9040102F0CFFF80464C
:105A3000894602460B465046594602F00FFE024682
:105A40000B4650465946CDE9062302F007FE424672
:105A50004B4602F003FE4CA3D3E90023804689465F
:105A6000DDE9040102F0B2FF42464B4602F0F6FDCA
:105A7000DDE906ABCDE902010B4602465946504628
:105A800002F0ECFDC1F30A53ED1A312D8046894630
:105A90007FF777AF3FA3D3E90023DDE9040102F0EC
:105AA00095FF8046894602460B46DDE9060102F075
:105AB000D5FD02460B4682468B46DDE9060102F023
:105AC000CDFD42464B4602F0C9FD34A3D3E9002385
:105AD00080468946DDE9040102F078FF42464B46E4
:105AE00002F0BCFD02460B4650465946CDE9022362
:105AF00002F0B4FD8046894643E70323B8E602F08E
:105B0000AFFD234B9D4206460F4616D01AA3D3E99C
:105B1000002302F0A5FD02460B46C4E900233946E6
:105B2000304602F09BFD14A3D3E9002302F098FD58
:105B30004FF0FF37C4E9020154E611A3D3E9002373
:105B400002F08EFD10A3D3E900230F46064602F0B3
:105B500087FD02460B46C4E900233946304602F071
:105B60007DFD09A3D3E9002302F07AFD4FF0FF3752
:105B7000C4E9020136E600BF3163621A61B4D03D68
:105B80000000601A61B4D03D7370032E8A19A33BE4
:105B9000FB21F93F0000002E8A19A33BC1492025B3
:105BA0009A837B392DE9F041634955EC104BA943A9
:105BB00000F09F80002D2B4610EE102A52DD5FEA88
:105BC000255E00F0B180C3F31303AEF2FF3E43F451
:105BD0008013D10F1EF0010F01EB43034FEA420483
:105BE00003D0E40F04EB430394004FF0000C4FEAA2
:105BF0006E0E664616254FF40012B118994202DC6B
:105C00005B1A8E1894445B00013D03EBD4734FEA9A
:105C100052024FEA4404F0D12F4620204FF00042B8
:105C200009E041D0E10F01384FEA520201EB430392
:105C30004FEA440441D0B34202EB0501F1DD0029F3
:105C400001EB020509DBB0469B1BA14288BF03F1B3
:105C5000FF33641A17444646E4E7002DF3DB06F1F0
:105C60000108F1E725F00041214339D0002D50D142
:105C7000D40A153B52052146002CF9D0E50256D432
:105C8000002000E028464900CC0200F10105F9D5CA
:105C90000C461146AA40C5F1200521FA05F5A3EBF3
:105CA000000E45EA04038EE7A142BBD8002901EBB0
:105CB0000205D2DB98460023CBE7234312D17808B4
:105CC0004FEA6C0101F17F511CF0010F01F5001149
:105CD00018BF40F0004001EB0E53024643EC102B7E
:105CE000BDE8F0817B1C16BF781C0CF1010C40084C
:105CF000E6E710EE102A2B4610EE100A294602F0B5
:105D000065FE22462B4602F0ABFC41EC100BBDE8D1
:105D1000F0812046294602F0A1FC02460B4602F023
:105D20007FFF41EC100BDBE729467346A8E71146DD
:105D300020254FF0FF30B0E70000F07F38B510EEBF
:105D4000105A25F00044B4F17E5F2DED048B00F075
:105D5000828079DCB4F17C5F0EDAB4F1485F80F2C6
:105D60009680DFED647A70EE277AB7EE007AF4EE73
:105D7000C77AF1EE10FA64DCFEF7F8FBF7EE007A72
:105D800037EEC00AB6EE008A20EE088A9FED5A3A36
:105D90009FED5A4ADFED5A3ADFED5A4A9FED5A5AC3
:105DA000DFED5A5A9FED5A6A9FED5A7ADFED5A6A33
:105DB000DFED5A8AA8EE034AE8EE234AA4EE085A19
:105DC000E4EE885AA5EE086AA5EE887AE6EE086A3F
:105DD000E7EE087AE6EE888AB0EE480AB0EE679AF7
:105DE00000F004FC4E4B9C4268EE888A40DC10EECA
:105DF000103A23F47F6323F00F0307EE903AB1EEDD
:105E0000676AA6EE278A70EE277AC8EE895A88EE6E
:105E1000275A9FED447ADFED447AF0EE006AA5EE52
:105E2000667A30EE000AB0EE675AA6EE265A90EE79
:105E3000257A37EE450A37EEC00A002DD8BFB1EEFD
:105E4000400ABDEC048B38BDBDEC048B70EE407A8B
:105E500087EEA70A38BDDFED337A9FED347A60EE26
:105E6000277ABDEC048BE0EE077AB0EE670A38BD06
:105E7000C8EE896A9FED2E7ADFED2C7AA0EE260A15
:105E8000F0EE006AA0EE267A37EEC70AD5E760EE9C
:105E9000007ADFED192ADFED193ADFED1B4A9FED9D
:105EA000183A9FED184ADFED1A6A9FED185ADFED98
:105EB0001A5A9FED186A9FED197AE7EEA23ABDECE7
:105EC000048BE3EEA74AA7EE834AE4EEA76AA4EEAA
:105ED000275AE6EEA75AA5EE276AA5EEA77AF7EEAF
:105EE000006AE6EE276A67EE277A87EEA67AA0EECA
:105EF000070A38BDCAF2497108EF1138047F4F3ADA
:105F00002EC69D3D613330BF461124BD2D57014043
:105F1000A80A4E3E39D119C090B0A6BEABAA2A3EFF
:105F20009999793F2EBD3BB3DB0F493FDB0FC93F4A
:105F30002EBD3B3310B582B0CDED010A019B23F09D
:105F40000042B2F1FF4FF0EE407A19DC10EE100A79
:105F500020F00041B1F1FF4F12DCB3F17E5F51D070
:105F60009C1704F0020444EAD07479B9022C36D0AC
:105F70009FED440A032C18BFB0EE670A02B010BDB3
:105F80009DED017A37EE270A02B010BDF2B1B2F1F1
:105F9000FF4F27D0B1F1FF4F52D08A1AD2153C2AB9
:105FA00035DC002B43DA3C3241DA9FED370A012C15
:105FB00058D0022C4DD0002CE6D0DFED347A9FED86
:105FC000347A70EE277A37EEC70ADDE79FED310AA3
:105FD000DFED317A0028B8BFB0EE670AD4E79FED55
:105FE0002C0AD1E7B1F1FF4F14D0022CF7D0032CCB
:105FF0003FD0DFED2A7A9FED240A012C08BFB0EED6
:10600000670AC1E702B0BDE81040FEF799B99FEDFD
:10601000210ACCE7022C32D0032C2DD0DFED207AE0
:106020009FED200A012C08BFB0EE670AACE79DED9A
:10603000010A87EE800AFEF799FAFEF781F9B6E7C2
:10604000DFED147A9FED140A0028A8BFB0EE670AAE
:106050009AE7DFED0E7A9FED0E7A70EE277A37EE33
:10606000670A91E710EE103A03F1004300EE103A90
:106070008AE79FED040A87E79FED0B0A84E79FED0F
:106080000B0A81E7DB0F49C0000000002EBDBB33C7
:10609000DB0F4940DB0FC93FDB0FC9BF00000080A9
:1060A000DB0F49BFDB0F493FE4CB16C0E4CB164002
:1060B00010EE103A23F00042B2F1FF4F54D84FEAED
:1060C000D37100F097806348834250DC002BC0F20C
:1060D0008A80614B9A424FD9604B9A42604B00F2E2
:1060E0009C8003EB8103D3ED004AD3ED027A70EE7E
:1060F000644AC1F101035B1A34EEE70A9FED594A85
:106100009FED595ADFED595A9FED596ADFED596AF3
:1061100020EE007AA7EE045AE5EE075AA5EE876A4C
:10612000E6EE076AB0EE406AA6EEC76AB0EE467ABF
:1061300020EE066A002B49D0F0EE006A36EEC77AF0
:10614000B7EE000AC6EE076A13F17D0F77EEE67A26
:1061500077EEE47A30EE670A53DB10EE102A02EB9A
:10616000C35300EE103A704730EE000A70479FEDBF
:10617000420A20EE000A7047B2F1465F0AD2DFED14
:106180003E7A70EE277AB7EE007AF4EEC77AF1EE37
:1061900010FA5BDC60EE007A9FED325ADFED325A86
:1061A0009FED326ADFED326A9FED327AE7EE855A73
:1061B000A7EEA56AE7EE866AA7EEA67AF0EE406A39
:1061C000E7EEC76A20EE266AB0EE667AF0EE007A55
:1061D00037EE677AF7EE006AC6EE077A37EEC00A46
:1061E00036EEC00A7047254B9A427FF672AF9FED9C
:1061F000240A7047DFED227A002918BFB0EE670A43
:10620000704710EE102A643302EBC353DFED1D7AA2
:1062100000EE103A20EE270A704703EB8103DFED12
:106220001A7A93ED047A9FED196ADFED196AA0EEF0
:10623000277AF0EE404AFDEEC77A17EE903AF8EE74
:10624000E77AE7EEC64A67EEA67A55E730EE070A28
:10625000704700BF1772B1421872B13E9115853F69
:106260005C8802084CBB31330EEADDB555B38A3881
:10627000610B36BBABAA2A3ECAF24971B5F1CF42D7
:10628000000000000000800D3BAAB83F8071313F44
:10629000D1F7173708B510EE103A33F000422DED64
:1062A000028B2AD0002B31DBB3F1FF4F40DAB3F57C
:1062B000000F34DB0021DA157F3A0A44D10FC1F117
:1062C0007F000A44C3F3160307EE902A43EAC05343
:1062D00000EE103AB8EEE78A02F0C2F8DFED177A66
:1062E000DFED176A9FED177A20EE270AA8EE260A3F
:1062F000A8EE070ABDEC028B08BDBDEC028B9FED3A
:10630000127ADFED127A87EE270A08BDBDEC028B08
:1063100070EE407A9FED0D7A87EE870A08BDDFEDBB
:106320000C7A60EE277A6FF0180117EE903AC2E708
:10633000BDEC028B30EE000A08BD00BFD95BDE3E2B
:10634000DB27543580209A3E000000CC000000007E
:106350000000004C70B510EE103A964A23F000444D
:10636000944286B0054668DD934A944210EE106A66
:106370001ADC002B24F00F04DFED907A904A40F3F2
:10638000F280944270EE677A66D09FED8E7A77EE57
:10639000C76A012077EEE67AC5ED006A77EEC77A24
:1063A000C5ED017A06B070BD874A944267DDB4F14D
:1063B000FF4F49DAE215863AA4EBC25307EE903A52
:1063C000BDEEE77ADFED816AB8EEC77A77EEC77A7D
:1063D0008DED037A67EEA67ABDEEE77AB8EEC77A5E
:1063E00077EEC77A8DED047A67EEA67AF5EE407AFD
:1063F000F1EE10FACDED057A40F0A280B5EE407ACC
:10640000F1EE10FA14BF0223012371490191022118
:10641000009103A8294600F097FF002EC2DA95EDFF
:10642000007AD5ED017AB1EE477AF1EE677A404213
:1064300085ED007AC5ED017AB4E7002285ED000A0A
:106440004260002006B070BD70EE407A0020C5EDBD
:10645000017AC5ED007AA5E7DFED5E6A9FED5E7A11
:1064600077EEE67A012077EEC76A77EEE67AC5ED39
:10647000006A77EEC77AC5ED017A06B070BDFEF707
:1064800075F8DFED566ADFED4D5A9FED4E7AF6EE68
:10649000007AE0EE267AFDEEE77A17EE900AF8EE43
:1064A000E76A1F28B1EE666AA6EE250A66EE877ACD
:1064B0001EDC421E4A4B53F8223024F0FF029A425F
:1064C00030EE677A16D085ED007A30EE470A002E5E
:1064D00030EE670A85ED010ABFF664AFB1EE477A88
:1064E000B1EE400A85ED007A85ED010A404259E798
:1064F00030EE677A17EE103AE415C3F3C753E31A88
:10650000082BE0DDDFED337A9FED337AF0EE405A71
:10651000E6EE275A30EE650AA6EE270AF0EE407A3C
:10652000D6EE877A35EEE77A17EE103AC3F3C75303
:10653000E41A192C06DC85ED007AB0EE650AC4E792
:10654000032362E79FED277A9FED275AB0EE650A95
:10655000A6EE070A75EEC07AE6EE077AD6EE857AE1
:1065600030EE677AAFE7944270EE277A0ED09FED57
:10657000157A77EE876A4FF0FF3077EEE67AC5ED51
:10658000006A77EE877AC5ED017A0BE7DFED116AD5
:106590009FED117A77EEA67A4FF0FF3077EE876A9B
:1065A00077EEE67AC5ED006A77EE877AC5ED017A77
:1065B000F8E600BFD80F493FE3CB1640800FC93F34
:1065C000D00FC93F43443537800F49430000804313
:1065D000F48802080044353708A3852E84F9223F49
:1065E0007488020800A3852E32318D24B1EEC00AD2
:1065F000704700BF000000002DE9F04F57EC106B12
:106600002DED028BB0EE418AF0EE618A27F0004951
:10661000B9F1795F83B072DA10EE100A394602F0F0
:1066200085FC002800F0F68032463B46304639466D
:1066300002F0CCF97CA3D3E9002304460D4602F016
:10664000C5F97BA3D3E9002302F00AF822462B46C2
:1066500002F0BCF978A3D3E9002301F0FFFF224642
:106660002B4602F0B3F976A3D3E9002301F0F8FF3B
:1066700022462B4602F0AAF973A3D3E9002301F0C6
:10668000EDFF22462B4602F0A1F971A3D3E90023C6
:1066900001F0E6FF22462B4602F098F982468B462F
:1066A0000022714B2046294602F090F9524680465E
:1066B00089465B462046294602F088F953EC182BA0
:1066C00004460D463046394602F080F902460B4634
:1066D0002046294601F0C2FF02460B464046494685
:1066E00001F0BCFF02460B460020604901F0B6FFF6
:1066F00041EC100B03B0BDEC028BBDE8F08F10EE47
:10670000102A10EE100A3B46394602F05FF946A304
:10671000D3E9002304460D4602F058F944A3D3E917
:10672000002301F09DFF22462B4602F04FF942A3C1
:10673000D3E9002301F092FF22462B4602F046F9EE
:106740003FA3D3E9002301F08BFF22462B4602F042
:106750003DF93DA3D3E9002301F080FF22462B46FB
:1067600002F034F93AA3D3E9002301F079FF2B4674
:10677000224602F02BF93E4B994582468B468FDD2F
:106780003C4B99453DDC0022A9F500130020374918
:106790009046994601F062FFCDE900010022324B9C
:1067A0002046294602F012F942464B4601F056FFB8
:1067B0005246804689465B462046294602F006F945
:1067C00053EC182B04460D463046394602F0FEF8CD
:1067D00002460B462046294601F040FF02460B4682
:1067E0004046494601F03AFF02460B46DDE900010A
:1067F00001F034FF41EC100B03B0BDEC028BBDE89F
:10680000F08F9FED157B4FF000088DED007BDFF8DA
:106810006890C3E79FED120B03B0BDEC028BBDE89F
:10682000F08F00BFAFF30080D43888BEE9FAA8BD6E
:10683000C4B1B4BD9EEE213EAD529C804F7E923ECF
:106840009015CB19A001FA3E7751C1166CC1563F85
:106850004C5555555555A53F000000000000E73F39
:10686000000000000000F03F0000E03F0000F03FAB
:106870003233D33F0000E93F0000D23F0000000068
:106880002DE9F04FADF5197DB94CA29D089354F850
:1068900025400594013B12F1140F04900B910393D2
:1068A000C0F2B282B349D31E81FB0301DB17C3EBF5
:1068B000A10307930133A3EB8303DB00D3180693F3
:1068C000079A039BD61A059A12EB03081AD408F10B
:1068D000010800240025B04420AFDDF88C9208E0C8
:1068E00059F8260002F008F801364645E7E80201AB
:1068F00008D0002EF4DA0136204629464645E7E85E
:106900000201F6D1059B002B089B4FEAC3030193BC
:106910002ADB049A20A902EB030801EB030A059B7A
:1069200072AA02EBC30B0DF5E079039B002B4FF02D
:1069300000064FF0000711DB049C554675E9022361
:10694000F4E8020102F042F802460B4630463946AE
:1069500001F086FE444506460F46EFD1E9E802679E
:10696000D9450AF1080AE0D10198049C05990191E2
:1069700020448B0083460BA8A3F10802C3180A9396
:106980000CAB13440993019A98A901EBC203002AA6
:1069900053E9284529DD0DF5E07A0AEBC2080DF12F
:1069A00030090022744B2046294602F00FF802F00D
:1069B000BDFA01F0A1FF0022704B06460F4602F01F
:1069C00005F802460B462046294601F047FE02F034
:1069D000ADFA78E9022349F8040B3946304601F054
:1069E0003FFED04504460D46DBD1DDF8189045EC5E
:1069F000104B484601F0DCFB55EC104B00224FF0E9
:106A00007F5310EE100A294601F0E0FF41EC100B15
:106A100001F0B2FA002251EC100B594B01F0D6FFF5
:106A200002460B462046294601F018FE0D46044654
:106A300002F07CFA804601F05FFF0B4602462946D1
:106A4000204601F00BFE4B46002B06460F4640F356
:106A50009980019A0CA9013AC9F1180351F8225002
:106A600045FA03F101FA03F3EB1AC9F117050CA873
:106A700043FA05F5002D40F82230884400F38C805D
:106A8000002200233046394602F008FA002800F0C0
:106A90009282019B059A03F1FF394A4510DC03F10C
:106AA00080430CAA013B0A9802EB8303002253F8AF
:106AB0000419834242EA0102F9D1002A40F0DB8046
:106AC000059B0CAA013B52F82330002B40F0CE80EE
:106AD000099A012352F8041901330029FAD00199C7
:106AE0004A1CCB1802939146079B089902EB030AB4
:106AF000019B0B441D4620AB0AF1804A03EBC50500
:106B0000A39B0AF1FF3A03EB8A0A70AB03EBC203C3
:106B100001935AF8040F01F0EFFE0B460399024669
:106B2000A8460029E8E802234FF000064FF00007CE
:106B300011DB049C01E075E90223F4E8020101F095
:106B400045FF02460B463046394601F089FD5C455B
:106B500006460F46EFD1019BE3E802670193029BD3
:106B600009F1010999454546D3DD01930BE700BFC3
:106B7000108C0208ABAAAA2A0000703E00007041E7
:106B80000000204069D1019B0CAA013B52F8235020
:106B9000ED15002D7FF774AF019B002B08F1010864
:106BA00040F307820C9C002C3AD1019B012B09D0A9
:106BB0000CA9012251F8044F531C9CBB1A46019B9F
:106BC0009342F7D1069B002B0EDD012B00F01181C3
:106BD000022B09D1019B5A1E0CAB0CA953F8223091
:106BE000C3F3150341F82230022D7FF449AF32463A
:106BF0003B460020944901F031FD06460F46002C2B
:106C00003FF43EAF06989FED8C0B01F0D1FA304671
:106C1000394653EC102B01F021FD06460F462FE7B5
:106C2000012300220CA9C4F1807441F8224001998B
:106C3000994210DD0CAA0CA852F8232000EB830324
:106C400000EB81006FF07F4100E01A688A1A43F878
:106C5000042B8342F9D10124B4E700227B4B02F0DC
:106C60003BF9002840F0D580054609E7019B5A1CF6
:106C70009146029238E70CAB069A53F82930CDF8CA
:106C80001C80183A0495069273B9019B03F1804366
:106C9000023B0CA901EB830353F8041909F1FF39F6
:106CA000183A0029F8D0069206989FED630B01F080
:106CB0007FFAB9F1000F55EC104BC0F2DD814FEABD
:106CC000C90370AA02EB0308069309F101060CAB95
:106CD000DFF87CB14FF0000A08F1080703EB8606E5
:106CE00056F8040D01F008FE22462B4601F06EFE18
:106CF0005B4667E9020152462046294601F066FEDE
:106D00000CAB9E4204460D46EAD1CDF80890DDF862
:106D1000149048ABB9F1000F0393C34601934FF0B1
:106D2000000A2BDBDFF82C815D4645A3D3E9002365
:106D300000260027002403E0544510DCF8E8022375
:106D4000F5E8020101F042FE02460B4630463946A4
:106D500001F086FC0134A14506460F46ECDA019BA2
:106D6000029AE3E8026792450193ABF1080B0AF13E
:106D7000010306D0B9F1000F9A46D3DA00260027A6
:106D8000EDE7A29BDDF80890032B2BD8DFE813F08A
:106D9000F600E500E500660048AB002400250393FB
:106DA00003992B462246D1E9000101F057FC049BD0
:106DB000002B40F040810B9BB9F1000FC3E9004567
:106DC0000DDD4AAD01240134F5E8022301F048FC51
:106DD000A145F8DA049B13B101F1004319460B9B5E
:106DE000C3E90201079B03F007000DF5197DBDE81B
:106DF000F08F019B5A1E0CAB0CA953F82230C3F341
:106E0000160341F82230EFE600216FF017030791D7
:106E100054E5019B002B08F10108C8BF02253FF78C
:106E2000C1AE32463B460020074901F017FC02255F
:106E300006460F4624E600BF000000000000F03FB9
:106E400000000040FB21F93F0000F03F0000E03F60
:106E50000000703E288C020848AB0393B9F1000F84
:106E600040F31D81039A4FEAC9030193D318D3E974
:106E700000AB984678E9026752465B463046394691
:106E800001F0EEFB04460D4602460B4630463946FD
:106E900001F0E4FB5B46524601F0E2FB039B4345F5
:106EA000A246AB46C8E90201C8E90045E2D1B9F102
:106EB000010F40F3F480019B039A09F1005909F195
:106EC000FF3913444FEAC901D3E9006701F1080A09
:106ED000019192440DF5947B7AE9028932463B4652
:106EE0004046494601F0BCFB04460D4602460B46AF
:106EF0004046494601F0B2FB32463B4601F0B0FB4A
:106F0000D34526462F46CAE90201CAE90045E3D126
:106F1000019C039B1034002000211C4403F1100548
:106F200074E9022301F09CFBA542F9D1039C049E65
:106F3000D4E90023D4E90245002E40F087800B9E5F
:106F4000C6E90023079BC6E9040103F00700C6E970
:106F500002450DF5197DBDE8F08F069E039F0836AA
:106F6000002400253E4476E902232046294601F00C
:106F700077FBB74204460D46F5D111E7069C039D09
:106F80000834002000212C4474E9022301F068FB3E
:106F9000A542F9D1049B13B101F1004319460B9BA3
:106FA000C3E90001079B03F007000DF5197DBDE85B
:106FB000F08F002406E6069B0495584247EC106BC0
:106FC000CDF81C8001F0F4F855EC104B0022354B45
:106FD00010EE100A294601F07FFF10B30022324B59
:106FE0002046294601F0F2FC01F0A0FF064601F020
:106FF00083FC00222B4B01F0E9FC02460B462046A5
:10700000294601F02BFB01F091FF069B019A1833F2
:1070100002F1010906930CAB43F8220043F8296002
:1070200042E62046294601F081FF019B0CAA9946C1
:1070300042F8230038E622460B9C05F10043B9F1E3
:10704000000FC4E900233FF7BCAEC5E603F10047DB
:1070500001F100430B99C1E90403079B26469446BE
:1070600005F1004403F00700C1E900C7C1E902646B
:107070000DF5197DBDE8F08FA29B032B3FF6B2AE54
:1070800001A252F823F000BF99700008996D000822
:10709000996D0008596E0008002000217AE7002051
:1070A000002143E7000070410000703E0000000036
:1070B0002DE9F04F55EC104B2DED028BB0EE418ACF
:1070C000F0EE618A25F00043B3F1795F83B0824628
:1070D00007DA10EE100A294601F028FF002800F018
:1070E0008E8022462B462046294601F06FFC06463C
:1070F0000F4602460B462046294601F067FC47A38F
:10710000D3E90023804689463046394601F05EFCCB
:1071100044A3D3E9002301F0A1FA32463B4601F033
:1071200055FC42A3D3E9002301F09AFA32463B46CC
:1071300001F04CFC3FA3D3E9002301F08FFA324663
:107140003B4601F043FC3DA3D3E9002301F088FA5C
:10715000CDE90001BAF1000F37D000222E4B51ECDF
:10716000180B01F033FCDDE9002382468B464046D4
:10717000494601F02BFC02460B465046594601F0A9
:107180006DFA32463B4601F021FC53EC182B01F01E
:1071900065FA1FA3D3E9002306460F464046494639
:1071A00001F014FC02460B463046394601F058FA0D
:1071B00002460B462046294601F050FA41EC100BDE
:1071C00003B0BDEC028BBDE8F08F02460B463046A3
:1071D000394601F0FBFB0EA3D3E9002301F03EFA90
:1071E00042464B4601F0F2FB22462B4601F038FAAC
:1071F00041EC100B03B0BDEC028BBDE8F08F45EC09
:10720000104B03B0BDEC028BBDE8F08FAFF30080F4
:10721000495555555555C53F0000E03F7CD5CF5ADF
:107220003AD9E53DEB9C2B8AE6E55A3E7DFEB15707
:10723000E31DC73ED561C119A0012A3FA6F8101170
:107240001111813F10EE103A23F00043B3F1485F73
:107250002CDAFDEEC07A17EE903A002B60D020EECB
:10726000007ADFED314A9FED315ADFED315A9FED63
:10727000316ADFED317ADFED316AA7EE245AE7EEAD
:10728000055AA7EE256AE7EE067AE7EE276A66EE6C
:10729000876A60EEC00AB6EE006AE7EE260AF7EEED
:1072A000007AD7EE060A37EEE00A704720EE007A41
:1072B000DFED1D4A9FED1D5ADFED1D5A9FED1D6A42
:1072C000DFED1D7ADFED1D6A1D4AA7EE245A9342B9
:1072D000E5EE075AA5EE876AE6EE077AE7EE876ADB
:1072E00066EE876AD5DD174A934214DC03F17F43CB
:1072F00007EE903AB7EE006A36EE676A60EEC00AB3
:10730000F6EE005AE7EE260AD7EE257A77EEE07A17
:1073100036EE670A7047B6EE076AF5EE027AEDE7D9
:10732000B7EE000A704700BF4ED747ADF6740F3175
:107330007CF293B4010DD037610BB6BAABAA2A3DEB
:107340009999993E0000483F2DE9F04F2DED048BAF
:10735000DBB0D64C689D0791111D54F8255004935D
:107360000992814603F1FF38C0F25782D31E44BF11
:1073700013460433DB1003930133DB000893DDE98C
:1073800008239B1A0693039B15EB0801A3EB080344
:1073900016D401319FEDC67A699819441EAA002BB4
:1073A000A4BF50F8234007EE904A03F10103ACBF9D
:1073B000F8EEE77AF0EE477A8B42E2EC017AEED112
:1073C000049B002D4FEA830C4FEA850A1DDB1EABA0
:1073D00003EB0C0447AB09EB0C0103EB0A0646A8D0
:1073E000B8F1000FDFEDB27A09DB22464B46F3EC31
:1073F000016A32ED017A8B42E6EE877AF7D1E0EC52
:10740000017AB04204F10404EAD1AAF108030AAFF8
:10741000FB180593AB4609AB01959FEDA79ADFEDED
:10742000A58A069D09EB0C049A4446AE4FEA8B01EF
:107430005AAB0B44BBF1000F13ED140A16DD06EB3B
:107440008B033A4660EE097AB0EE407AFDEEE77AB9
:1074500073ED016AF8EEE77AB342A7EEE87A37EE09
:10746000A60ABDEEC77AA2EC017AEBD128460291BA
:1074700000F084FFB0EE408AB4EE000A28EE000A65
:1074800000F032FFF2EE007AA0EE678A002D02993A
:10749000FDEEC89AF8EEE97A38EE678A75DD0BF1F1
:1074A000FF3CC5F1080357F82C2042FA03F000FA1C
:1074B00003F3D31A47F82C30C5F1070219EE90CA2E
:1074C00043FA02F28444002A09EE90CA66DCB5EE63
:1074D000408AF1EE10FA40F0A380019B0BF1FF3CD3
:1074E00063450EDC0BF18041013907EB810100207F
:1074F00051F80439514540EA0300F9D1002840F021
:10750000EE80019B013B57F82330002B40F0E280D6
:10751000059B012053F804290130002AFAD00BF111
:10752000010358449C46039A03EB020E049A1EA9D9
:107530005A440EF1804E01EB820269990EF1FF3E32
:1075400001EB8E0E06EB830B5EF8043F9FED587A3D
:1075500007EE903AF8EEE77A1146B8F1000FE1EC49
:10756000017A09DB4B4601E072ED017AF3EC016A26
:10757000A342A6EEA77AF7D10CF1010C8445ABEC3F
:10758000017A0A46E0DD834650E740F099800BF12E
:10759000FF3357F823201212002A98DD19EE903A93
:1075A000BBF1000F03F1010309EE903A40F3C481EF
:1075B0003868002861D1BBF1010F0BD0BE464FF0F7
:1075C000010C5EF8040F0CF10103002858D19B4513
:1075D0009C46F6D1002D0CDD012D00F01581022D09
:1075E00007D10BF1FF3157F8213003F03F0347F883
:1075F0002130022A7FF46BAFB7EE000A30EE488AE2
:1076000000283FF464AF2846029200F0B7FE38EE3F
:10761000408A029AB5EE408AF1EE10FA3FF45DAF6F
:107620009046DDE90832B0EE480A981A019D00F054
:10763000A5FE9FED207AB4EEC70AF1EE10FAC0F273
:107640007D81DFED1D7A069B60EE277A0833FDEE23
:10765000E77A0693F8EEE77A0BF10103A7EEC70A83
:10766000FDEEE77ABDEEC00A10EE102A47F82B2097
:1076700017EE902A47F8232046E001234FF0000C34
:10768000C0F580709B4547F82C000CDD57F82300AF
:10769000394407EB830300E01868C0F1FF0043F8AA
:1076A000040B8B42F8D1012094E700BF608C0208E4
:1076B00000000000000080430000803B0000C93F44
:1076C000F6EE007AB4EEE78AF1EE10FA80F2AA80C4
:1076D0000022FCE60BF101039C46184623E70699BD
:1076E000019D904657F82C200839634606915AB9F7
:1076F0000BF18042023A07EB820252F80409013B87
:1077000008390028F9D0069106980193B7EE000ACF
:1077100000F034FE019B002BC0F22F819E0046AA90
:1077200006F1040C1FED1C7A1644311D07EB0C0208
:1077300072ED017AF8EEE77ABA4267EE807A20EECF
:10774000070A61ED017AF3D10DF1C80E002D7746DD
:107750004FF000041FED276A1DDB9248DFED927A9F
:107760003146B0EE467A002203E0A24208DCB0ECDB
:10777000017AF1EC016A01329542E6EE877AF4DA99
:107780009C42E7EC017AA6F1040604F101020CD058
:10779000002D1446E1DADFED847A9C42E7EC017AB1
:1077A000A6F1040604F10102F2D1689A032A22D854
:1077B000DFE802F0B19F9F4ADFED7B7A9DED327AE0
:1077C000424637EE677A002A40F0C080079A002BC5
:1077D000C2ED007A0CDD33A90122F1EC017A01320D
:1077E000934237EE277AF8DA43460BB1B1EE477A87
:1077F000079B83ED017A19EE903A03F007005BB026
:10780000BDEC048BBDE8F08F0BF1FF3157F8213050
:1078100003F07F0347F82130EBE6082308930023A9
:107820000393ACE519EE903ABBF1000F03F10103AD
:1078300009EE903AC8BF02223FF7BAAEF7EE007ADF
:1078400037EEC88A022242E6002B40F3A880990056
:107850005AAA0A440DF1C80E52ED286A0EEB8302B3
:1078600072ED017A37EEA67A964577EEC77A82ED09
:10787000007A77EEA67AF0EE476AC2ED017AEFD190
:10788000012B40F38C8003F18043013B5AAA9B00FB
:1078900011441A1D51ED286A724433A972ED017A20
:1078A00037EEA67A914277EEC77A82ED007A77EECC
:1078B000A67AF0EE476AC2ED017AEFD10833DFED28
:1078C0003A7A73440EF1080E33ED017A9E4577EE55
:1078D000877AF9D14346DDED326A9DED337A002B8C
:1078E0003DD1079BC3ED006A83ED017AC3ED027AB7
:1078F00081E7DFED2D7AF4443CED017AE64577EE41
:10790000877AF9D19DED327A424637EE677A002ABE
:107910003FF45CAF1AE0DFED247AF4443CED017AE9
:10792000E64577EE877AF9D143460BB1F1EE677AF7
:10793000079BC3ED007A5EE700204BE6BDEEC00A70
:107940005B4610EE102A47F82B20DDE6079AF1EE91
:10795000677A002BC2ED007A3FF73DAF46E7079B01
:10796000F1EE666AB1EE477AF1EE677AC3ED006A2E
:1079700083ED017AC3ED027A3DE7689A032A3FF668
:107980003AAF01A151F822F099790008B9770008BF
:10799000B977000849780008DFED037AC4E7DFED26
:1079A000027A97E7708C02080000000010EE103A8F
:1079B00023F00043B3F1485F04DAFDEEC07A17EE1E
:1079C000903A5BB360EE007A9FED155ADFED155AE1
:1079D0009FED156ADFED156A9FED157AE7EE855A82
:1079E00020EE275AA5EEA76AE6EE276AA6EEA77A4A
:1079F00030B9DFED106AE7EE876AA6EE850A7047B8
:107A000027EE457AF6EE006AA0EEA67ADFED0A6A66
:107A1000D7EE270AE5EE260A30EE600A704700BF6F
:107A2000D3C92E2F342FD7B21BEF3836010D50B9E2
:107A30008988083CABAA2ABEABAA2A3E08B510EE3C
:107A4000103A23F00042B2F1465F2DED028BB0EE0A
:107A5000407A11DAFDEEC07A17EE901A09BB431C8A
:107A6000134300F0A38001287DD0BDEC028BFFEE14
:107A7000007A87EE870A08BD50498A4211DD002B43
:107A8000DFED4F7ADFED4F6ABCBFF1EE600AB1EE79
:107A9000407A37EEC77A76EEE07ADFED4B0A37EEC2
:107AA000877A67EE076A9FED490A9FED492A9FEDA5
:107AB000498ADFED491A9FED493ADFED492A9FEDEA
:107AC000494ADFED493A9FED495ADFED494A9FEDBA
:107AD000496ADFED495A9FED491A384966EEA67AA0
:107AE0008A42A7EE802AE7EE881AA2EE273AE1EE54
:107AF000A72AA3EE274AE2EEA73AA4EE275AE3EE1E
:107B0000A74AA5EE276AE4EEA75AF0EE467AE5EE1C
:107B1000A67A27EE266AF0EE605AE7EE865AE5EE80
:107B2000A60AE6EE010A37EE200A1FDC01281AD069
:107B3000FFEE007AC7EE806A314B10EE102A1A4031
:107B400006EE102A16EE902A134000EE103AF7EED9
:107B5000007AE6EE007A36EE477A70EEC70AE0EE7B
:107B6000807AA7EEA60ABDEC028B08BD07EE900A4C
:107B7000F8EEE76A60EE005A70EE267A9B1785EE03
:107B8000A76A03F00203C3F10103BDEC028BF0EE20
:107B9000005A76EE600A07EE903A37EE607AF8EE19
:107BA000E77AE7EE656A26EEA70A08BDFCF7DEFC79
:107BB000F7EE007A87EE800AD5E700BF3FA12C3FA1
:107BC000DA0F493F68212233000000005FAE9BB707
:107BD00045F4A3388453D9377AC09538C8261A3A61
:107BE000B937813916696B3B48DEBE3AA427B33CEE
:107BF0001F37113C8988083ED10D5D3DABAAAA3ED6
:107C000000F0FFFF000000002DE9F84F55EC104B8D
:107C1000C74B25F000469E42AA461ADDC54B9E4240
:107C20000DDC0AD0BAF1000F40F3C880A4A1D1E95D
:107C3000000141EC100BBDE8F88F002CF2D0224679
:107C40002B462046294600F00BFD41EC100BBDE809
:107C5000F88FB94B9E4200F3C080A3F1DE739E42C1
:107C600040F39A804FF0FF3B22462B4620462946A0
:107C700000F0ACFE02460B468046894600F0A6FEA8
:107C800091A3D3E9002306460F4600F09FFE90A380
:107C9000D3E9002300F0E4FC32463B4600F096FEB8
:107CA0008DA3D3E9002300F0DBFC32463B4600F015
:107CB0008DFE8BA3D3E9002300F0D2FC32463B4675
:107CC00000F084FE88A3D3E9002300F0C9FC32460B
:107CD0003B4600F07BFE86A3D3E9002300F0C0FC06
:107CE00042464B4600F072FE83A3D3E90023804650
:107CF00089463046394600F069FE81A3D3E9002366
:107D000000F0ACFC32463B4600F060FE7EA3D3E9B7
:107D1000002300F0A3FC32463B4600F057FE7CA354
:107D2000D3E9002300F09AFC32463B4600F04EFEB9
:107D300079A3D3E9002300F091FC32463B4600F0E2
:107D400045FE02460B464046494600F089FC224665
:107D50002B4600F03BFEBBF1FF3F02460B4634D002
:107D6000764B03EBCB0BDBE9082300F077FC2246D4
:107D70002B4600F073FC02460B46DBE9000100F0E5
:107D80006DFCBAF1000FBFF660AF01F10043194678
:107D900041EC100BBDE8F88F61A3D3E9002310EE8E
:107DA000100A294600F05CFC0022654B01F09EF8A9
:107DB00000283FF457AF2046294646E75AA1D1E9AB
:107DC000000141EC100BBDE8F88F2046294600F079
:107DD00045FC41EC100BBDE8F88F00F0BBF8594BA7
:107DE0009E4255EC104B23DCA3F550239E424CDC05
:107DF00010EE102A10EE100A2B46294600F030FC37
:107E000000224F4B00F02AFC002206460F464FF09E
:107E100080432046294600F023FC02460B463046AC
:107E2000394600F0FDFE4FF0000B04460D461BE7FF
:107E3000454B9E421DDC10EE100A0022434B2946A2
:107E400000F00CFC002206460F46404B2046294617
:107E500000F0BCFD00223A4B00F002FC02460B464B
:107E60003046394600F0DCFE4FF0020B04460D466A
:107E7000FAE62B4610EE102A0020354900F0D0FE1D
:107E80004FF0030B04460D46EEE610EE100A0022FA
:107E90002B4B294600F0E2FB002206460F46284BFA
:107EA0002046294600F0DCFB02460B4630463946A8
:107EB00000F0B6FE4FF0010B04460D46D4E600BFBD
:107EC000182D4454FB21F93F11DA22E33AAD903FDB
:107ED000EB0D76244B7BA93F513DD0A0660DB13F01
:107EE0006E204CC5CD45B73FFF8300922449C23F69
:107EF0000D5555555555D53F2F6C6A2C44B4A2BF2E
:107F00009AFDDE522DDEAD3F6D9A74AFF2B0B33FF5
:107F1000711623FEC671BC3FC4EB98999999C93F6D
:107F20009C7500883CE4377E182D4454FB21F9BF32
:107F3000FFFF0F440000F07FFFFFDB3F988C02083B
:107F40000000F03FFFFFF23FFF7F03400000F83FDB
:107F50000000F0BF51EC100B10EE102A21F000438E
:107F600043EC102B704700BF10EE903A43F00040F6
:107F700000F58010C00F704751EC100BF8B5C1F33D
:107F80000A53A3F2FF35132D0C4610EE106A30DCB5
:107F9000002D1EDB384F2F4107EA010303432DD08C
:107FA00033A3D3E9002300F05BFB0022002300F0A1
:107FB0009DFF48B1002C04DA4FF4801343FA05F515
:107FC0002C4424EA070400262346324643EC102BB7
:107FD000F8BD27A3D3E9002300F042FB00220023D1
:107FE00000F084FF0028EFD0002C29DB0026344667
:107FF000EAE7332D05DDB5F5806F19D041EC100BA4
:10800000F8BDA3F213434FF0FF37DF400742F5D02E
:1080100017A3D3E9002300F023FB0022002300F084
:1080200065FF0028D0D0002C13DB26EA0706CBE73B
:1080300010EE102A0B4600F013FB41EC100BF8BDBC
:1080400024F000430D4A1E43002E18BF144600269C
:10805000BAE7142D08D00123C5F1340503FA05F55C
:10806000AE1928BFE418E0E70134DEE7AFF3008083
:108070009C7500883CE4377EFFFF0F000000F0BFD6
:108080009FED010B704700BF000000000000F87F6B
:10809000F0B553EC102BC3F30A56A6F2FF301328A9
:1080A00083B019464FEAD37410EE105A37DC00281B
:1080B0002DDB3D4E064103EA060717432BD0760819
:1080C00033401D430CD04FF48023132821EA0606C9
:1080D00043FA00F141EA06010CBF4FF000450025CC
:1080E000324800EBC4042A46D4E900450B4620463A
:1080F000294600F0B5FACDE9000122462B46DDE91C
:10810000000100F0ABFA41EC100B03B0F0BD23F01E
:108110000040104322D143EC102B03B0F0BD3328B4
:1081200009DDB0F5806FF6D110EE100A00F098FA74
:1081300041EC100BF1E7A6F213464FF0FF30F04090
:108140000242E8D040080242CAD04FF0804325EAFC
:10815000000043FA06F640EA0605C1E7C3F3130040
:10816000104345420543114800EBC400D0E90067C5
:10817000590C2D0B490405F4002545EA010330464E
:10818000394600F06DFACDE900013B463246DDE9A3
:10819000000100F063FA21F0004343EAC47141ECAE
:1081A000100B03B0F0BD00BFFFFF0F00D88C02081A
:1081B00038B553EC102BC3F30A511C46054681BB5E
:1081C00010EE101A23F00044214329D01946002252
:1081D0003D4B3E4C10EE100A00F0F8FBA542024663
:1081E0000B4616DB0C46C1F30A513639294440F2DE
:1081F000FE70814221DC002947DC11F1350F34DAB1
:108200004CF250318D4218DC002B27A1D1E900013E
:1082100044DB25A3D3E9002300F0D8FB41EC100B8D
:1082200038BD40F2FF708142E0D110EE100A1946CD
:1082300000F016FA41EC100B38BD002B1CA1D1E95F
:10824000000107DB1AA3D3E9002300F0BFFB41ECD8
:10825000100B38BD18A1D1E9000115A3D3E9002303
:1082600000F0B4FB41EC100BF3E724F0FF4424F4DE
:10827000E004363144EA0153104619460022144BFB
:1082800000F0A4FB41EC100B38BD24F0FF4424F4B3
:10829000E00444EA015343EC102B38BD08A1D1E9B6
:1082A0000001B6E7AFF3008059F3F8C21F6EA501D5
:1082B0009C7500883CE4377E9C7500883CE437FE62
:1082C00059F3F8C21F6EA58100005043B03CFFFF78
:1082D0000000903C10EE103A23F00040B0F1FF4F48
:1082E000ACBF00200120704710EE102A22F00041A0
:1082F000CB0D7F3B162B28DC002B18DB19491941CD
:108300000A4221D0DFED187A70EE277AF5EEC07AB6
:10831000F1EE10FA18DD002A04DA4FF4000040FAFA
:1083200003F31A4422EA010300EE103A7047DFED2E
:108330000E7A70EE277AF5EEC07AF1EE10FA03DDD0
:10834000002A08DB9FED090A7047B1F1FF4FFBD30C
:1083500030EE000A70470029FFEE007A18BFB0EE39
:10836000670A7047FFFF7F00CAF2497100000000F2
:108370009FED010A704700BF0000C07F82B08DED05
:10838000010A019B33F000422AD0B2F1FF4F23D201
:1083900013F0FF4F28D19DED017ADFED2A7A2A4BA9
:1083A00067EE277A9842CDED017A37DB019BC3F364
:1083B000C752193A0244FE2A1ADD9FED240A9FEDA6
:1083C000247A019B002BF0EE407AB8BFB0EE470A4A
:1083D00020EE270A02B0704730EE000A02B0704764
:1083E0009DED010A02B07047D20D0244FE2AE4DC82
:1083F000002A0BDC12F1160F17DA4CF250339842B8
:10840000DBDC9FED140A9FED147ADAE723F0FF43DB
:1084100043EAC25300EE103A02B070479FED0D0AD6
:10842000DDED017A27EE800AD8E7193223F0FF4309
:1084300043EAC253DFED097A07EE103A27EE270A26
:10844000CCE700BF0000004CB03CFFFFCAF249710E
:10845000CAF249F16042A20D6042A28D00000033D1
:1084600010EE103A33F000422DD0002B32DBB3F186
:10847000FF4F3FDAB3F5000F30B432DB0025654A19
:108480006549C3F31604224402F40002DB1582F0AE
:108490007E507F3B20432B4400EE100A04F10F0571
:1084A000B7EE007A294003EBD25330EE477A21BB76
:1084B000B5EE407AF1EE10FA62D1002B40F08D80DB
:1084C0009FED560A69E09FED567ADFED547A87EE0C
:1084D000270A704770EE407A9FED507A87EE870A40
:1084E0007047DFED507A60EE277A6FF0180517EECF
:1084F000903AC4E730EE000A7047F0EE007A77EE6B
:10850000277A9FED493ADFED494ADFED495ADFED21
:10851000493A9FED495A9FED490ADFED496A4949B9
:1085200087EE274AC4F55712214402F522720A4306
:10853000002A07EE903A24EE046AF8EEE72A66EE87
:10854000067AE7EE834AA7EEA35AE4EEA75AE5EED1
:10855000276AA5EEA70A20EE060AA6EEA70A1EDDE8
:10856000F6EE007A67EE277A67EE877A30EE270A12
:1085700020EE040A23BB37EEC00A37EE400A0CE0B7
:10858000DFED317AB6EE000AA7EE670A67EE077AEA
:1085900020EE270A73BB37EE400A30BC704737EE37
:1085A000400A20EE040A002BF5D0DFED286ADFED4B
:1085B000287AA2EEE60A30EE470A92EEA70AECE726
:1085C0009FED226ADFED226AA2EE860A37EEC00A2C
:1085D00030EE470A92EEA60ADFE707EE903A9FEDEB
:1085E0001B0A9FED1B7AF8EEE77A27EE800AA7EECA
:1085F000870AD2E707EE903A9FED146ADFED146A1E
:10860000F8EEE77AA7EEC60A30EE470A97EEA60A1A
:10861000C3E700BF20FB4A00F0FF7F00000000001E
:10862000000000CC0000004C9788173E25333A3EEE
:108630002549923E4FD01C3E298E633EABAA2A3F6D
:10864000CDCCCC3E305CCFFFABAAAA3ED1F71737DA
:108650008071313F81F0004102E000BF83F00043B0
:1086600030B54FEA41044FEA430594EA050F08BFCD
:1086700090EA020F1FBF54EA000C55EA020C7FEA91
:10868000645C7FEA655C00F0E2804FEA5454D4EB0E
:108690005555B8BF6D420CDD2C4480EA020281EAD8
:1086A000030382EA000083EA010180EA020281EA10
:1086B0000303362D88BF30BD11F0004F4FEA013162
:1086C0004FF4801C4CEA113102D0404261EB410171
:1086D00013F0004F4FEA03334CEA133302D05242F7
:1086E00063EB430394EA050F00F0A780A4F10104B3
:1086F000D5F1200E0DDB02FA0EFC22FA05F28018ED
:1087000041F1000103FA0EF2801843FA05F35941D2
:108710000EE0A5F120050EF1200E012A03FA0EFC51
:1087200028BF4CF0020C43FA05F3C01851EBE3717B
:1087300001F0004507D54FF0000EDCF1000C7EEB98
:1087400000006EEB0101B1F5801F1BD3B1F5001FD6
:108750000CD349085FEA30004FEA3C0C04F10104F5
:108760004FEA445212F5800F80F09A80BCF1004F1E
:1087700008BF5FEA500C50F1000041EB045141EAA0
:10878000050130BD5FEA4C0C404141EB0101013C69
:1087900028BFB1F5801FE9D291F0000F04BF014658
:1087A0000020B1FA81F308BF2033A3F10B03B3F12A
:1087B00020020CDA0C3208DD02F1140CC2F10C02BA
:1087C00001FA0CF021FA02F10CE002F11402D8BF18
:1087D000C2F1200C01FA02F120FA0CFCDCBF41EAE4
:1087E0000C019040E41AA2BF01EB0451294330BDB3
:1087F0006FEA04041F3C1CDA0C340EDC04F1140490
:10880000C4F1200220FA04F001FA02F340EA030066
:1088100021FA04F345EA030130BDC4F10C04C4F1AC
:10882000200220FA02F001FA04F340EA030029468C
:1088300030BD21FA04F0294630BD94F0000F83F4D6
:10884000801306BF81F480110134013D4EE77FEAB9
:10885000645C18BF7FEA655C29D094EA050F08BF05
:1088600090EA020F05D054EA000C04BF19461046E6
:1088700030BD91EA030F1EBF0021002030BD5FEA2A
:10888000545C05D14000494128BF41F0004130BD52
:1088900014F580043CBF01F5801130BD01F00045A6
:1088A00045F0FE4141F470014FF0000030BD7FEA19
:1088B000645C1ABF194610467FEA655C1CBF0B4614
:1088C000024650EA013406BF52EA033591EA030F2B
:1088D00041F4002130BD00BF90F0000F04BF002123
:1088E000704730B54FF4806404F132044FF0000556
:1088F0004FF0000150E700BF90F0000F04BF0021CF
:10890000704730B54FF4806404F1320410F0004534
:1089100048BF40424FF000013EE700BF42004FEA2F
:10892000E2014FEA31014FEA02701FBF12F07F43AC
:1089300093F07F4F81F06051704732F07F4208BF63
:10894000704793F07F4F04BF41F40021704730B56A
:108950004FF4607401F0004521F000411CE700BFB6
:1089600050EA010208BF704730B54FF000050AE039
:1089700050EA010208BF704730B511F0004502D53A
:10898000404261EB41014FF4806404F132045FEA3C
:10899000915C3FF4D8AE4FF003025FEADC0C18BFE5
:1089A00003325FEADC0C18BF033202EBDC02C2F1D7
:1089B000200300FA03FC20FA02F001FA03FE40EA69
:1089C0000E0021FA02F11444BDE600BF70B54FF06D
:1089D000FF0C4CF4E06C1CEA11541DBF1CEA13554B
:1089E00094EA0C0F95EA0C0F00F0DEF82C4481EAB3
:1089F000030621EA4C5123EA4C5350EA013518BFD3
:108A000052EA033541F4801143F4801338D0A0FBBF
:108A100002CE4FF00005E1FB02E506F00042E0FB6C
:108A200003E54FF00006E1FB03569CF0000F18BF72
:108A30004EF0010EA4F1FF04B6F5007F64F540741A
:108A400004D25FEA4E0E6D4146EB060642EAC621AD
:108A500041EA55514FEAC52040EA5E504FEACE2E1A
:108A6000B4F1FD0C88BFBCF5E06F1ED8BEF1004F1D
:108A700008BF5FEA500E50F1000041EB045170BD99
:108A800006F0004646EA010140EA020081EA0301DD
:108A9000B4EB5C04C2BFD4EB0C0541EA045170BDD9
:108AA00041F480114FF0000E013C00F3AB8014F153
:108AB000360FDEBF002001F0004170BDC4F100049C
:108AC000203C35DA0C341BDC04F11404C4F120051D
:108AD00000FA05F320FA04F001FA05F240EA020078
:108AE00001F0004221F0004110EBD37021FA04F6AE
:108AF00042EB06015EEA430E08BF20EAD37070BD68
:108B0000C4F10C04C4F1200500FA04F320FA05F0C6
:108B100001FA04F240EA020001F0004110EBD370C8
:108B200041F100015EEA430E08BF20EAD37070BD38
:108B3000C4F1200500FA05F24EEA020E20FA04F311
:108B400001FA05F243EA020321FA04F001F00041C0
:108B500021FA04F220EA020000EBD3705EEA430E31
:108B600008BF20EAD37070BD94F0000F0FD101F060
:108B70000046400041EB010111F4801F08BF013C99
:108B8000F7D041EA060195F0000F18BF704703F0D7
:108B90000046520043EB030313F4801F08BF013D5E
:108BA000F7D043EA0603704794EA0C0F0CEA13551A
:108BB00018BF95EA0C0F0CD050EA410618BF52EAD4
:108BC0004306D1D181EA030101F000414FF00000DA
:108BD00070BD50EA410606BF1046194652EA4306E8
:108BE00019D094EA0C0F02D150EA013613D195EA5C
:108BF0000C0F05D152EA03361CBF104619460AD1A4
:108C000081EA030101F0004141F0FE4141F47001AD
:108C10004FF0000070BD41F0FE4141F4780170BD9D
:108C200070B54FF0FF0C4CF4E06C1CEA11541DBF02
:108C30001CEA135594EA0C0F95EA0C0F00F0A7F804
:108C4000A4EB050481EA030E52EA03354FEA013131
:108C500000F088804FEA03334FF0805545EA131344
:108C600043EA12634FEA022245EA111545EA10650C
:108C70004FEA00260EF000419D4208BF964244F1A3
:108C8000FD0404F5407402D25B084FEA3202B61AC2
:108C900065EB03055B084FEA32024FF480104FF496
:108CA000002CB6EB020E75EB030E22BFB61A75460A
:108CB00040EA0C005B084FEA3202B6EB020E75EB9D
:108CC000030E22BFB61A754640EA5C005B084FEA05
:108CD0003202B6EB020E75EB030E22BFB61A7546D2
:108CE00040EA9C005B084FEA3202B6EB020E75EBDD
:108CF000030E22BFB61A754640EADC0055EA060E9E
:108D000018D04FEA051545EA16754FEA06164FEAE0
:108D1000C30343EA52734FEAC2025FEA1C1CC0D18C
:108D200011F4801F0BD141EA00014FF000004FF019
:108D3000004CB6E711F4801F04BF01430020B4F1DA
:108D4000FD0C88BFBCF5E06F3FF6AFAEB5EB030C92
:108D500004BFB6EB020C5FEA500C50F1000041EB8F
:108D6000045170BD0EF0004E4EEA113114EB5C045C
:108D7000C2BFD4EB0C0541EA045170BD41F480112F
:108D80004FF0000E013C90E645EA060E8DE60CEA37
:108D9000135594EA0C0F08BF95EA0C0F3FF43BAF54
:108DA00094EA0C0F0AD150EA01347FF434AF95EA0B
:108DB0000C0F7FF425AF104619462CE795EA0C0FEF
:108DC00006D152EA03353FF4FDAE1046194622E7BC
:108DD00050EA410618BF52EA43067FF4C5AE50EA96
:108DE00041047FF40DAF52EA43057FF4EBAE12E786
:108DF0004FF0FF3C06E000BF4FF0010C02E000BF67
:108E00004FF0010C4DF804CD4FEA410C7FEA6C5C49
:108E10004FEA430C18BF7FEA6C5C1BD001B050EAEC
:108E2000410C0CBF52EA430C91EA030F02BF90EAD7
:108E3000020F0020704710F1000F91EA030F58BF96
:108E4000994208BF90422CBFD8176FEAE37040F0F8
:108E5000010070474FEA410C7FEA6C5C02D150EA96
:108E6000013C07D14FEA430C7FEA6C5CD6D152EA51
:108E7000033CD3D05DF8040B704700BF8446104616
:108E800062468C461946634600E000BF01B5FFF715
:108E9000B7FF002848BF10F1000F01BD4DF808EDE5
:108EA000FFF7F4FF0CBF012000205DF808FB00BFB6
:108EB0004DF808EDFFF7EAFF34BF012000205DF810
:108EC00008FB00BF4DF808EDFFF7E0FF94BF01205D
:108ED00000205DF808FB00BF4DF808EDFFF7CEFF5E
:108EE00094BF012000205DF808FB00BF4DF808ED9D
:108EF000FFF7C4FF34BF012000205DF808FB00BF6E
:108F00004FEA410C7FEA6C5C02D150EA013C0AD185
:108F10004FEA430C7FEA6C5C02D152EA033C02D177
:108F20004FF0000070474FF0010070474FEA4102D8
:108F300012F5001215D211D56FF47873B3EB6252AB
:108F400012D94FEAC12343F0004343EA505311F0D2
:108F5000004F23FA02F018BF404270474FF0000064
:108F6000704750EA013005D111F0004008BF6FF0A2
:108F7000004070474FF00000704700BF4FEA4102C9
:108F8000B2F1E04324BFB3F5001CDCF1FE5C0DD967
:108F900001F0004C4FEAC0024CEA5070B2F1004FB1
:108FA00040EB830008BF20F00100704711F0804FB4
:108FB00021D113F13872BCBF01F00040704741F479
:108FC00080114FEA5252C2F11802C2F1200C10FA7D
:108FD0000CF320FA02F018BF40F001004FEAC12361
:108FE0004FEAD32303FA0CFC40EA0C0023FA02F305
:108FF0004FEA4303CCE77FEA625307D150EA0133DB
:109000001EBF4FF0FE4040F44000704701F00040AA
:1090100040F0FE4040F40000704700BF80F0004088
:1090200002E000BF81F0004142001FBF5FEA410340
:1090300092EA030F7FEA226C7FEA236C6AD04FEA40
:109040001262D2EB1363C1BFD21841404840414085
:10905000B8BF5B42192B88BF704710F0004F40F437
:10906000000020F07F4018BF404211F0004F41F453
:10907000000121F07F4118BF494292EA030F3FD01F
:10908000A2F1010241FA03FC10EB0C00C3F1200332
:1090900001FA03F100F0004302D5494260EB4000C1
:1090A000B0F5000F13D3B0F1807F06D340084FEA2C
:1090B000310102F10102FE2A51D2B1F1004F40EB21
:1090C000C25008BF20F0010040EA03007047490089
:1090D00040EB0000013A28BFB0F5000FEDD2B0FA26
:1090E00080FCACF1080CB2EB0C0200FA0CF0AABF49
:1090F00000EBC25052421843BCBFD04018437047E7
:1091000092F0000F81F4000106BF80F400000132EC
:10911000013BB5E74FEA41037FEA226C18BF7FEAC3
:10912000236C21D092EA030F04D092F0000F08BF05
:109130000846704790EA010F1CBF0020704712F0EC
:109140007F4F04D1400028BF40F00040704712F12B
:1091500000723CBF00F50000704700F0004343F090
:10916000FE4040F4000070477FEA226216BF0846C6
:109170007FEA23630146420206BF5FEA412390EA89
:10918000010F40F4800070474FF0000304E000BF7F
:1091900010F0004348BF40425FEA000C08BF704730
:1091A00043F0964301464FF000001CE050EA0102F4
:1091B00008BF70474FF000030AE000BF50EA010209
:1091C00008BF704711F0004302D5404261EB4101F6
:1091D0005FEA010C02BF84460146002043F0B6431B
:1091E00008BFA3F18053A3F50003BCFA8CF2083A40
:1091F000A3EBC25310DB01FA02FC634400FA02FC49
:10920000C2F12002BCF1004F20FA02F243EB02004F
:1092100008BF20F00100704702F1200201FA02FCB1
:10922000C2F1200250EA4C0021FA02F243EB0200A4
:1092300008BF20EADC70704753B94AB9002908BF5B
:1092400000281CBF4FF0FF314FF0FF3000F0D8B9BD
:10925000ADF1080C6DE904CE00F070F8DDF804E023
:10926000DDE9022304B0704707EE900AF5EEC07AFC
:10927000F1EE10FA01D400F023B8F1EE677A08B5E8
:1092800017EE900A00F01CF8404261EB410108BD66
:1092900038B50022002304460D46FFF709FE28B921
:1092A00020462946BDE8384000F02AB8204605F19E
:1092B000004100F025F8404261EB410138BD00BF9C
:1092C000D0B5FFF72BFB0C4B002206460F46FFF7ED
:1092D0007DFB00F097F90446FFF7FEFA074B0022EA
:1092E000FFF774FB02460B4630463946FFF7B6F9E6
:1092F00000F088F92146D0BD0000F03D0000F041AB
:10930000D0B50C4B002206460F46FFF75FFB00F07E
:1093100079F90446FFF7E0FA074B0022FFF756FB06
:1093200002460B4630463946FFF798F900F06AF9D5
:109330002146D0BD0000F03D0000F0412DE9F0478E
:10934000089D04468C46002B40F083808A421746D5
:1093500047D9B2FA82F242B1C2F1200024FA00F0F9
:109360009140974040EA010C94404FEA1748230C83
:10937000BCFBF8F61FFA87FE08FB16C143EA01435F
:1093800006FB0EF1994209D9FB1806F1FF3080F077
:109390001981994240F21681023E3B445B1AA4B205
:1093A000B3FBF8F008FB103344EA034400FB0EFE65
:1093B000A64509D93C1900F1FF3380F00581A64587
:1093C00040F2028102383C4440EA0640A4EB0E041D
:1093D00000261DB1D4400023C5E900433146BDE855
:1093E000F08702B9FFDEB2FA82F2002A50D1CB1B1D
:1093F0004FEA174E1FFA87F80126B3FBFEFC210C3B
:109400000EFB1C3341EA034108FB0CF38B4207D9E6
:1094100079180CF1FF3002D28B4200F2E9808446C9
:10942000C91AA3B2B1FBFEF00EFB101143EA0144CE
:1094300008FB00F8A04507D93C1900F1FF3302D220
:10944000A04500F2D9801846A4EB080440EA0C407D
:10945000BFE78B4209D9002D00F0B1800026C5E995
:10946000000130463146BDE8F087B3FA83F6002E9E
:109470004AD18B4202D3824200F2B880841A61EB57
:10948000030101208C46002DA8D0C5E9004CA5E7BA
:10949000C2F1200320FA03F6974001FA02F04FEAE6
:1094A000174ED9403043030CB1FBFEF61FFA87F884
:1094B0000EFB161143EA014306FB08F1994204FA38
:1094C00002F409D9FB1806F1FF3C80F08D80994227
:1094D00040F28A80023E3B445B1A81B2B3FBFEF04D
:1094E0000EFB103341EA034100FB08F38B4207D91E
:1094F000791800F1FF3C73D28B4271D9023839449C
:10950000CB1A40EA064678E7C6F1200C03FA06F4C7
:1095100022FA0CF31C4320FA0CF701FA06F34FEA87
:10952000144E21FA0CF11F433B0CB1FBFEF91FFA5C
:1095300084F80EFB191143EA014109FB08FA8A4538
:1095400002FA06F200FA06F308D9611809F1FF30B1
:1095500048D28A4546D9A9F102092144A1EB0A0162
:10956000BFB2B1FBFEF00EFB101147EA014700FB52
:1095700008F8B84507D9E71900F1FF312ED2B845F0
:109580002CD90238274440EA0940A7EB0807A0FB82
:1095900002894F45C64649461AD317D05DB1B3EB91
:1095A0000E0267EB010707FA0CFCF2404CEA0202DC
:1095B000F740C5E9002700263146BDE8F0872E4672
:1095C00028460BE70646E9E61846FDE64345E5D2A0
:1095D000B8EB020E69EB04010138DFE70846D2E779
:1095E00060468DE78146B9E7664675E730464AE74B
:1095F000ACF1020C394413E702383C4424E700BFC5
:10960000704700BF4A0011D212F5001211D20DD5D9
:109610006FF47873B3EB62520ED44FEAC12343F078
:10962000004343EA505323FA02F070474FF0000022
:10963000704750EA013002D14FF0FF3070474FF0D1
:1096400000007047014B1868704700BF04000020FD
:10965000844641EA000313F003036DD1403A41D33D
:1096600051F8043B40F8043B51F8043B40F8043BFC
:1096700051F8043B40F8043B51F8043B40F8043BEC
:1096800051F8043B40F8043B51F8043B40F8043BDC
:1096900051F8043B40F8043B51F8043B40F8043BCC
:1096A00051F8043B40F8043B51F8043B40F8043BBC
:1096B00051F8043B40F8043B51F8043B40F8043BAC
:1096C00051F8043B40F8043B51F8043B40F8043B9C
:1096D00051F8043B40F8043B51F8043B40F8043B8C
:1096E000403ABDD2303211D351F8043B40F8043B2C
:1096F00051F8043B40F8043B51F8043B40F8043B6C
:1097000051F8043B40F8043B103AEDD20C3205D33B
:1097100051F8043B40F8043B043AF9D2043208D033
:10972000D2071CBF11F8013B00F8013B01D30B88A5
:1097300003806046704700BF082A13D38B078DD083
:1097400010F003038AD0C3F10403D21ADB071CBF55
:1097500011F8013B00F8013B80D331F8023B20F8BF
:10976000023B7BE7043AD9D3013A11F8013B00F8F8
:10977000013BF9D20B7803704B7843708B78837080
:1097800060467047F0B4860746D0541E002A3CD08D
:10979000CAB2034602E014F1FF3436D303F8012BBA
:1097A0009D07F8D1032C29D9CDB245EA05250F2C08
:1097B00045EA054533D9A4F11006360903F120071F
:1097C00007EB061703F1100242E9045542E902557E
:1097D0001032BA42F8D1721C14F00C0F03EB0212D3
:1097E00004F00F0613D0331F23F003030433134494
:1097F00042F8045B9342FBD106F003042CB1C9B2DA
:109800001C4403F8011B9C42FBD1F0BC704734465A
:109810001346002CF3D1F8E714460346C2E71A4674
:109820002646E0E700000000000000000000000005
:109830000000000000000000000000000000000028
:10984000A2EB0300704700BF02780B78012A28BF03
:109850009A42F5D16DE9044540EA0104CDE9026779
:109860006FF0000C4FEA447212B380EA010414F066
:10987000070F6AD100F0070420F0070004F0030589
:1098800021F007014FEAC505F0E8042314F0040FA6
:10989000F1E804670CFA05F462EA040266EA0406D9
:1098A0000AD063EA0403624667EA0407664603E0F7
:1098B000F0E80423F1E8046782FA4CF582EA060432
:1098C000A4FA8CF46CBB83FA4CF583EA0705A5FA7D
:1098D0008CF595B950E9022351E9026782FA4CF5FB
:1098E00082EA0604A4FA8CF483FA4CF583EA0705AD
:1098F000A5FA8CF52543DBD09CB92DBAB5FA85F4D1
:1099000024F0070427FA04F1DDE9026723FA04F3DF
:1099100003F0FF0001F0FF01FDE80445A0EB0100AA
:10992000704724BAB4FA84F424F0070426FA04F148
:10993000DDE9026722FA04F202F0FF0001F0FF0104
:10994000FDE80445A0EB0100704714F0030F3CD183
:1099500010F0030428D150F8082B51F8083B82FA84
:109960004CF582EA0305A5FA8CF55DB950F8042C94
:1099700051F8043C82FA4CF582EA0305A5FA8CF50D
:10998000002DE8D02DBAB5FA85F424F0070423FAA7
:1099900004F122FA04F202F0FF0001F0FF01FDE8F9
:1099A0000445A0EB010070474FEAC40420F0030017
:1099B00050F8082B21F0030151F8083B0CFA04F48D
:1099C00062EA040263EA0403C9E710F003041AD050
:1099D000A1EB040120F00300E40750F8042B06D0AB
:1099E0000FD28B785FFAA2F4E41A06D12BB1CB78B0
:1099F0005FFAB2F4E41A00D11BB920465DF8104BAF
:109A0000704701F1040150F8042BCC0721F0030149
:109A100051F8043B48D824D222F07F4482FA4CF516
:109A200094EA1325A5FA8CF50AD165B951F8043BDF
:109A300084EA0204B4EB036F0ED150F8042BEBE779
:109A40004FEA132355E035F07F454DD10878FDE806
:109A50000445C0F1000070474FEA126203F0FF03B3
:109A600047E002EA1C4482FA4CF594EA1345A5FA51
:109A70008CF50AD165B951F8043B84EA0204B4EBD1
:109A8000034F0CD150F8042BEBE74FEA134330E0BF
:109A900015EA1C4528D10B884FEA124229E04FEA0B
:109AA000124203EA1C4324E002F0FF0482FA4CF560
:109AB00094EA1365A5FA8CF50AD165B951F8043B0F
:109AC00084EA0204B4EB032F09D150F8042BEBE72E
:109AD0004FEA13630DE015F0FF0F05D10B684FEA55
:109AE000122223F07F4304E04FF00000FDE804451C
:109AF000704712BA1BBA82FA4CF482EA0304A4FA41
:109B00008CF5B5FA85F402FA04F203FA04F34FEA8D
