:020000040FFEED
:1000000000E001207505FE0F117FFE0F137FFE0F2C
:100010002580FE0F4980FE0F6D80FE0F9580FE0F3C
:100020000000000000000000000000004975FE0F05
:100030009180FE0F00000000ED74FE0F1972FE0F9C
:10004000D505FE0FD505FE0FD505FE0FD505FE0F14
:10005000D505FE0FD505FE0FD505FE0FD505FE0F04
:10006000ED05FE0FF105FE0FD505FE0FD505FE0FC0
:10007000F505FE0FF905FE0FFD05FE0FD505FE0F78
:100080000106FE0F0506FE0FD505FE0F0906FE0F41
:100090000D06FE0FD505FE0FD505FE0FD505FE0F8B
:1000A000D505FE0FD505FE0FD505FE0FD505FE0FB4
:1000B000D505FE0FD505FE0FD505FE0FD505FE0FA4
:1000C000D505FE0FD505FE0FD505FE0FD505FE0F94
:1000D000D505FE0FD505FE0FD505FE0FD505FE0F84
:1000E000D505FE0FD505FE0FD505FE0FD505FE0F74
:1000F000D505FE0F1106FE0FD505FE0FD505FE0F27
:10010000D505FE0FD505FE0FD505FE0F1506FE0F12
:100110001906FE0F1D06FE0F2106FE0F2506FE0F17
:10012000D505FE0FD505FE0FD505FE0FD505FE0F33
:10013000D505FE0F2906FE0F2D06FE0F3106FE0F18
:10014000D505FE0F3506FE0F3906FE0FD505FE0F4D
:100150003D06FE0F4106FE0F4506FE0F4906FE0F47
:10016000D505FE0FD505FE0FD505FE0FD505FE0FF3
:10017000D505FE0FD505FE0FD505FE0FD505FE0FE3
:10018000D505FE0FD505FE0FD505FE0FD505FE0FD3
:10019000D505FE0FD505FE0F4D06FE0F5106FE0FCD
:1001A000D505FE0FD505FE0FD505FE0FD505FE0FB3
:1001B000D505FE0FD505FE0F5506FE0F5D06FE0F99
:1001C0006906FE0F7506FE0F8106FE0F8D06FE0FF7
:1001D0009906FE0FA506FE0FB106FE0FBD06FE0F27
:1001E000C906FE0FD506FE0FE106FE0FED06FE0F57
:1001F000F906FE0F0507FE0F1107FE0F1D07FE0F84
:100200002907FE0F3507FE0F4107FE0F4D07FE0FB2
:100210005907FE0F6507FE0F7107FE0F7D07FE0FE2
:100220008907FE0F9507FE0FA107FE0FAD07FE0F12
:10023000B907FE0FC507FE0FD505FE0FD107FE0F4C
:10024000D507FE0FD907FE0FDD07FE0FE107FE0FF2
:10025000E507FE0FE907FE0FED07FE0FF107FE0FA2
:10026000F507FE0FF907FE0FFD07FE0F0108FE0F51
:100270000508FE0F0908FE0F0D08FE0F1108FE0FFE
:100280001508FE0F1908FE0F1D08FE0F2108FE0FAE
:100290002508FE0F2908FE0F2D08FE0F3108FE0F5E
:1002A0003508FE0F3908FE0F3D08FE0F4108FE0F0E
:1002B0004508FE0F4908FE0F4D08FE0F5108FE0FBE
:1002C000D505FE0FD505FE0FD505FE0FD505FE0F92
:1002D000D505FE0FD505FE0FD505FE0FD505FE0F82
:1002E000D505FE0FD505FE0F5508FE0F5908FE0F68
:1002F000D505FE0FD505FE0FD505FE0FD505FE0F62
:10030000D505FE0FD505FE0FD505FE0F5D08FE0FC6
:100310006108FE0F6508FE0F6908FE0FD505FE0F88
:100320006D08FE0FD505FE0FD505FE0FD505FE0F96
:10033000D505FE0FD505FE0FD505FE0F7108FE0F82
:100340007508FE0F7908FE0F7D08FE0F8108FE0F6D
:100350008508FE0F8908FE0F8D08FE0F9108FE0F1D
:100360009508FE0F9908FE0F9D08FE0FD505FE0F9C
:10037000D505FE0FA108FE0FD505FE0FD505FE0F12
:10038000D505FE0FD505FE0FA508FE0FA908FE0F27
:10039000D505FE0FD505FE0FD505FE0FD505FE0FC1
:1003A000D505FE0FD505FE0FD505FE0FD505FE0FB1
:1003B000D505FE0FD505FE0FD505FE0FD505FE0FA1
:1003C000D505FE0FD505FE0FD505FE0FD505FE0F91
:1003D000D505FE0FD505FE0FD505FE0FD505FE0F81
:1003E000D505FE0FD505FE0FD505FE0FD505FE0F71
:1003F000D505FE0FD505FE0FD505FE0FD505FE0F61
:10040000D505FE0FD505FE0FD505FE0FD505FE0F50
:10041000D505FE0FD505FE0FD505FE0FD505FE0F40
:10042000D505FE0FD505FE0FD505FE0FD505FE0F30
:10043000D505FE0FD505FE0FD505FE0FD505FE0F20
:10044000D505FE0FD505FE0FD505FE0FD505FE0F10
:10045000D505FE0FD505FE0FD505FE0FD505FE0F00
:10046000D505FE0FD505FE0FD505FE0FD505FE0FF0
:04047000D505FE0FA1
:100478000348044B834202D0034B03B1184770472B
:10048800903400209034002000000000064B0749FB
:10049800C91A891048BF0131491003D0044B0BB168
:1004A80001481847704700BF90340020903400205E
:1004B8000000000010B5064C237843B9FFF7D8FFB9
:1004C800044B13B1044800E000BF0123237010BDA2
:1004D800A0340020000000000418FF0F08B5044BEA
:1004E8001BB10449044800E000BFBDE80840CDE75F
:1004F80000000000A43400200418FF0FA3F5803A80
:10050800704700BF154B002B08BF114B9D46FFF7E6
:10051800F5FF00218B460F461148124A121A04F0C3
:10052800F7FA0C4B002B00D098470B4B002B00D050
:1005380098470020002104000D000B4804F004FA3D
:1005480004F03CFA2000290007F0ACFB04F008FA9C
:1005580000000800000000000000000000E001208A
:10056800A03400209CC700209149FE0F72B60E48A7
:100578000E4901600A6882F308880D4880470D49D2
:100588000D4A0E4B9A42BEBF51F8040B42F8040BB9
:10059800F8E700200A490B4A9142BCBF41F8040B16
:1005A800FAE762B60848804708ED00E00000FE0F51
:1005B800C5EDFE0F5426FF0F0030002090340020B8
:1005C800A0C7002000E001200D05FE0FFFF7FEBFC9
:1005D800B4480047B4480047B4480047B448004707
:1005E800B4480047B4480047B4480047B4480047F7
:1005F800B4480047B4480047B4480047B4480047E7
:10060800B4480047B4480047B4480047B4480047D6
:10061800B4480047B4480047B4480047B4480047C6
:10062800B4480047B4480047B4480047B4480047B6
:10063800B4480047B4480047B4480047B4480047A6
:10064800B4480047B4480047B44800474FF000009A
:10065800B34908474FF000004FF00001B04A104777
:100668004FF000004FF00101AD4A10474FF0000075
:100678004FF00201AA4A10474FF000004FF0030163
:10068800A74A10474FF000004FF00401A44A104752
:100698004FF000004FF00501A14A10474FF000004D
:1006A8004FF006019E4A10474FF000004FF0070137
:1006B8009B4A10474FF000004FF00801984A104736
:1006C8004FF000004FF00901954A10474FF0000025
:1006D8004FF00A01924A10474FF000004FF00B010B
:1006E8008F4A10474FF000004FF00C018C4A10471A
:1006F8004FF000004FF00D01894A10474FF00000FD
:100708004FF00E01864A10474FF000004FF00F01DE
:10071800834A10474FF000004FF01001804A1047FD
:100728004FF000004FF011017D4A10474FF00000D4
:100738004FF012017A4A10474FF000004FF01301B2
:10074800774A10474FF000004FF01401744A1047E1
:100758004FF000004FF01501714A10474FF00000AC
:100768004FF016016E4A10474FF000004FF0170186
:100778006B4A10474FF000004FF01801684A1047C5
:100788004FF000004FF01901654A10474FF0000084
:100798004FF01A01624A10474FF000004FF01B015A
:1007A8005F4A10474FF000004FF01C015C4A1047A9
:1007B8004FF000004FF01D01594A10474FF000005C
:1007C8004FF01E01564A1047564800475648004702
:1007D800564800475648004756480047564800477D
:1007E800564800475648004756480047564800476D
:1007F800564800475648004756480047564800475D
:10080800564800475648004756480047564800474C
:10081800564800475648004756480047564800473C
:10082800564800475648004756480047564800472C
:10083800564800475648004756480047564800471C
:10084800564800475648004756480047564800470C
:1008580056480047564800475648004756480047FC
:1008680056480047564800475648004756480047EC
:1008780056480047564800475648004756480047DC
:1008880056480047564800475648004756480047CC
:1008980056480047564800475648004756480047BC
:1008A80056480047117FFE0F137FFE0F4975FE0F54
:1008B800ED74FE0F1972FE0FD505FE0FD505FE0F5C
:1008C800D505FE0FD505FE0FD505FE0FD505FE0F84
:1008D800D505FE0FA58FFE0FBD8FFE0FD505FE0FA8
:1008E800D505FE0FD505FE0FD505FE0FD505FE0F64
:1008F800D505FE0FD505FE0FD505FE0FD505FE0F54
:10090800D505FE0FD505FE0FD58FFE0FED8FFE0F17
:100918000590FE0F1D90FE0FD505FE0FD505FE0FA5
:10092800D505FE0FD505FE0FD505FE0FD505FE0F23
:10093800D505FE0FD505FE0FD505FE0FD505FE0F13
:10094800D505FE0FD505FE0FD505FE0FD505FE0F03
:10095800D505FE0FD505FE0FD505FE0FD505FE0FF3
:10096800D505FE0FD505FE0FD505FE0FD505FE0FE3
:10097800D505FE0FD505FE0FD505FE0FD505FE0FD3
:10098800D505FE0FD505FE0FD505FE0FD505FE0FC3
:10099800D505FE0FD505FE0FD505FE0FD505FE0FB3
:1009A800D505FE0FD505FE0FD505FE0FD505FE0FA3
:1009B800D505FE0FD505FE0FD505FE0FD505FE0F93
:1009C800D505FE0FD505FE0FD505FE0FD505FE0F83
:1009D800D505FE0FD505FE0FD505FE0FD505FE0F73
:1009E800D505FE0FD505FE0FD505FE0FD505FE0F63
:1009F800D505FE0FD505FE0F3590FE0F4D90FE0F65
:100A080051EC100B2C4A21F00043934200B585B0FD
:100A180020DD2A4A934209DD10EE102A0B4602F027
:100A2800D7FF41EC100B05B05DF804FB684600F0F9
:100A3800BFFA00F00300012817D002282FD028B3EE
:100A480001209DED021B9DED000B01F0E5FD51EC31
:100A5800100BE6E79FED161B01F086F851EC100B22
:100A680041EC100B05B05DF804FB9DED021B9DEDFC
:100A7800000B01F0D1FD10EE100A53EC102B03F11E
:100A8800004141EC100B05B05DF804FB9DED021B25
:100A98009DED000B01F068F851EC100BC1E79DEDDE
:100AA800021B9DED000B01F05FF8E4E7AFF3008057
:100AB8000000000000000000FB21E93FFFFFEF7F7E
:100AC80051EC100B2C4A21F00043934200B585B03D
:100AD80027DD2A4A934209DD10EE102A0B4602F060
:100AE80077FF41EC100B05B05DF804FB684600F099
:100AF8005FFA00F0030001281FD0022830D028B385
:100B08009DED021B9DED000B01F02EF810EE100A72
:100B180053EC102B03F1004141EC100B05B05DF8CC
:100B280004FB00209FED121B01F076FD51EC100B29
:100B380041EC100B05B05DF804FB9DED021B9DED2B
:100B4800000B01F011F851EC100BCAE701209DEDE4
:100B5800021B9DED000B01F05FFD51EC100BC0E78F
:100B680001209DED021B9DED000B01F055FDCDE729
:100B78000000000000000000FB21E93FFFFFEF7FBD
:100B880010EE103A204A23F00043934200B583B098
:100B980019DDB3F1FF4F04DB30EE400A03B05DF816
:100BA80004FB684600F0A6FE00F00300012811D0FF
:100BB80002281FD0B8B10120DDED010A9DED000A21
:100BC80002F0C8F9EAE7DFED110A01F0EFFD03B022
:100BD8005DF804FBDDED010A9DED000A02F0BAF9AB
:100BE800B1EE400ADAE7DDED010A9DED000A01F0F9
:100BF800DDFDD3E7DDED010A9DED000A01F0D6FD2C
:100C0800B1EE400ACAE700BFD80F493F0000000014
:100C180010EE103A214A23F00043934200B583B006
:100C28001ADDB3F1FF4F04DB30EE400A03B05DF884
:100C380004FB684600F05EFE00F00300012813D0B4
:100C4800022820D0B8B1DDED010A9DED000A01F0BF
:100C5800ADFDB1EE400AE9E70020DFED110A02F030
:100C680079F903B05DF804FBDDED010A9DED000A9A
:100C780001F09CFDDAE70120DDED010A9DED000A97
:100C880002F068F9D2E70120DDED010A9DED000AC6
:100C980002F060F9B1EE400AC8E700BFD80F493F3B
:100CA8000000000010EE103A134A23F0004393426C
:100CB80000B583B018DDB3F1FF4F04DB30EE400A16
:100CC80003B05DF804FB684600F014FEDDED010A90
:100CD80040009DED000A00F00200C0F1010002F0A2
:100CE80081F903B05DF804FB0120DFED040A02F08E
:100CF80079F903B05DF804FBDA0F493F0000000002
:100D080000F06EB838B52DED028B55EC104B00F0A5
:100D180069FB184BB0EE408AF0EE608A93F9003018
:100D280001330DD022462B462046294603F0A2FA6D
:100D380030B9204629460022002303F073FA30B95F
:100D4800B0EE480AF0EE680ABDEC028B38BD03F03D
:100D580001FE21210022002301601046194603F0FC
:100D680019F941EC180BB0EE480AF0EE680ABDEC30
:100D7800028B38BD0030002008B52DED028BB0EE97
:100D8800408A00F0FBFB134BF0EE408A93F90030E9
:100D980001330FD0B4EE488AF1EE10FA0AD6B0EE5D
:100DA800480A02F087FDF7EE007AB4EEE70AF1EEA2
:100DB80010FA04DCB0EE680ABDEC028B08BD03F043
:100DC800C9FD2123BDEC028B03600348BDE8084040
:100DD80002F07CBD003000200018FF0F00F0D0BCEE
:100DE80051EC110B43422DE9F047034321F0004E2B
:100DF8006D4F4EEAD373BB4255EC104B1CD863427F
:100E080025F00049AA46234349EAD373BB4213D8C5
:100E1800664B0B4403434BD08E1759EA040306F084
:100E2800020646EAD5760FD1022E45D0032E38D1D8
:100E38004BA1D1E9000103E022462B4602F0CAFD8E
:100E480041EC100BBDE8F0875EEA000322D0BE45F6
:100E58003AD0B9451ED0A9EB0E0E4FEA2E5EBEF170
:100E68003C0F2DDC00295ADA1EF13C0F57DA00201E
:100E78000021012E45D0022E36D0002EE0D03AA314
:100E8800D3E9002302F0A4FD39A3D3E9002302F03B
:100E98009FFDD5E7BAF1000F22DB37A1D1E90001A8
:100EA800CEE710EE100A294641EC100BBDE8F0879A
:100EB800BDE8F04702F074B92DA1D1E90001BFE700
:100EC8002DA1D1E90001D4E7F1451ED0022EF3D0BF
:100ED800032EADD0012E4FF000002FD00021AFE738
:100EE80027A1D1E90001ABE71FA3D3E9002302F052
:100EF8006FFD02460B461EA1D1E9000102F068FD14
:100F08009EE701F1004319469AE7022E21D0032EED
:100F18001BD0012E15D01CA1D1E9000190E7024693
:100F28000B462046294603F035F841EC100B02F039
:100F3800D1FA02F035F951EC100B9AE74FF0004165
:100F48007EE713A1D1E900017AE713A1D1E90001F5
:100F580076E713A1D1E9000172E700BFAFF3008083
:100F6800182D4454FB2109C0075C143326A6A13C64
:100F7800182D4454FB210940182D4454FB21F93FF6
:100F8800182D4454FB21F9BF182D4454FB21E93F87
:100F9800182D4454FB21E9BFD221337F7CD902C0EC
:100FA800D221337F7CD902400000F07F000010C0BE
:100FB80053EC102B2DE9F04F994923F000458FB0E1
:100FC8008D4240F3888097491E4604468D4229DCAD
:100FD800002E194610EE100A87A3D3E9002340F328
:100FE800AE8102F0F5FC904B804689469D4200F0A8
:100FF8008880012782A3D3E9002302F0E9FC024696
:101008000B4640464946C4E9002302F0E1FC7CA3B4
:10101800D3E9002302F0DCFCC4E9020138460FB032
:10102800BDE8F08F81498D4240F38B8080498D4225
:101038005CDC2F1510EE100A10EE108AA7F2164786
:10104800A5EB0759494603F02BF902F00FFE82463B
:101058008B464046494652465B46CDE908AB02F00E
:10106800B7FC0022734B02F06BFE8946804603F002
:1010780017F9054602F0FAFD02460B464046494676
:10108800CDE90A2302F0A4FC00226A4B02F058FEC4
:1010980000220023CDE90C0103F0BAF8002800F083
:1010A8004C81002D0CBF01230223634902203A46DC
:1010B80001912146009008A800F09AFE002E0746EC
:1010C800ACDA62684742E36802F1004203F1004388
:1010D8006260E360A2E700270024002580ED000B92
:1010E800C0E9024538460FB0BDE8F08F10EE100A8F
:1010F800194602F06DFC0027C4E90201C4E90001A9
:101108008CE741A3D3E9002302F062FC06460F46B0
:101118003FA3D3E9002302F05BFC02460B463046AE
:1011280039460127C4E9002302F052FC38A3D3E969
:10113800002302F04DFCC4E9020138460FB0BDE8B7
:10114800F08F02F0C7F910EE100A59EC108B32A399
:10115800D3E90023494602F0F3FD0022374B02F0A1
:1011680039FC03F09DF8074602F080FD22A3D3E97D
:101178000023CDE9040102F0E3FD02460B46404698
:10118800494602F025FC82468B461DA3D3E900237D
:10119800DDE9040102F0D4FD1F2FCDE9020151DC85
:1011A80002460B465046594602F012FC244B7A1E62
:1011B8008046894653F82230AB424BD042464B46D4
:1011C80050465946C4E9008902F002FCDDE90223D1
:1011D80002F0FEFB002EC4E90201BFF61FAF09F1C1
:1011E800004501F100437F42C4E90085C4E90203D8
:1011F80014E700BFAFF3008000004054FB21F93F23
:101208003163621A61B4D03D0000601A61B4D03D08
:101218007370032E8A19A33B83C8C96D305FE43FFE
:10122800FB21E93F7BD90240FB21F93FFB213941F2
:10123800FFFFEF7F0000704160EEFE0F0000E03F0F
:10124800E0EDFE0FDDE902235046594602F0C0FBEF
:10125800804689462D15C9F30A53EB1A102BADDDCC
:1012680057A3D3E90023DDE9040102F069FD8046B4
:10127800894602460B465046594602F0A9FB0246EB
:101288000B4650465946CDE9062302F0A1FB4246DB
:101298004B4602F09DFB804689464BA3D3E90023C9
:1012A800DDE9040102F04CFD42464B4602F090FB9A
:1012B8000B460246DDE906ABCDE902015046594628
:1012C80002F086FBC1F30A5380468946ED1A312D98
:1012D8007FF774AF3FA3D3E90023DDE9040102F0EF
:1012E8002FFD8046894602460B46DDE9060102F0DD
:1012F8006FFB02460B4682468B46DDE9060102F08B
:1013080067FB42464B4602F063FB8046894633A39F
:10131800D3E90023DDE9040102F012FD42464B4601
:1013280002F056FB02460B4650465946CDE90223C9
:1013380002F04EFB8046894640E70323B5E602F0FB
:1013480049FB234B804689469D4216D04FF0FF3714
:1013580019A3D3E9002302F03DFB02460B464046A1
:101368004946C4E9002302F033FB13A3D3E9002361
:1013780002F030FBC4E9020150E611A3D3E90023CF
:1013880002F028FB0F4606460FA3D3E9002302F01C
:1013980021FB02460B46304639464FF0FF37C4E979
:1013A800002302F015FB08A3D3E9002302F012FB87
:1013B800C4E9020132E600BF3163621A61B4D03D6C
:1013C8000000601A61B4D03D7370032E8A19A33BE4
:1013D800FB21F93F0000002E8A19A33BC1492025B3
:1013E8009A837B39634A2DE9F04155EC104BAA43A7
:1013F80000F09880002D2B4610EE100A5ADD5FEAA7
:10140800255E00F0AB80C3F31301AEF2FF3EC30FBD
:1014180041F480111EF0010F4FEA400203EB410333
:1014280003D0D10F820001EB43034FF0000C4FEAC9
:101438006E0E16244FF4001165466818984202DCB7
:101448001B1A45188C445B00013C4FEA510103EB21
:10145800D2734FEA4202F0D1274620264FF00041CE
:1014680014E00AD1904208D8002800EB01041CDBE4
:10147800A8460023121A0F444546D00F013E4FEAF2
:10148800510100EB43034FEA420234D0AB4201EB77
:101498000400E6DD002800EB010406DBA8465B1B20
:1014A800904288BF03F1FF33E4E7002CF6DB05F137
:1014B8000108F4E725F0004222432CD0002D41D149
:1014C800C40A153B40052246002CF9D0E5024BD44E
:1014D800002100E0294652004D1CD402FAD51446DA
:1014E8000246A840C5F1200522FA05F5A3EB010E36
:1014F80045EA040387E713430FD17E081E491CF011
:10150800010F01EB6C0118BF46F0004601EB0E53CA
:10151800324643EC102BBDE8F0817B1C21D07E1CA9
:101528007608EBE710EE102A2B4610EE100A294633
:1015380002F006FC22462B4602F04CFA41EC100B56
:10154800BDE8F08110EE102A294602F041FA024661
:101558000B4602F01FFD41EC100BDCE72A467346F0
:10156800B6E70CF1010CC9E7024620254FF0FF3120
:10157800BAE700BF0000F07F0000E03F38B510EE8A
:10158800105A25F00044B4F17E5F2DED048B00F075
:1015980088807FDCB4F17C5F0EDAB4F1485F80F2BA
:1015A8009C80DFED677AB7EE007A70EE277AF4EE6A
:1015B800C77AF1EE10FA6ADC02F07CF9F7EE007AED
:1015C800B6EE008A9FED5F4ADFED5F6A37EEC00A2C
:1015D800DFED5E3ADFED5E4A9FED5E5A20EE088A47
:1015E800DFED5D5A9FED5D6A9FED5D7AE8EE046A76
:1015F800DFED5C8AE8EE234AB0EE480AB0EE664AB0
:10160800DFED596AE4EE885AA4EE085AE5EE886AD6
:10161800A5EE086AE6EE887AA6EE087AB0EE679A32
:10162800E7EE088A00F09CFA504B9C4268EE888AE4
:1016380044DC10EE103ADFED4E7AC8EE895A9FED81
:101648004D7A23F47F6323F00F0306EE903A05EEFC
:10165800103AB1EE666A70EE264AF0EE006AA6EE1F
:10166800058AB0EE675A30EE000AA6EE265AB0EEAA
:10167800456A88EE245AA5EE667A90EE257A37EE0A
:10168800460A37EEC00A002DD8BFB1EE400ABDECBD
:10169800048B38BD70EE407ABDEC048B87EEA70A48
:1016A80038BDDFED347A9FED347A60EE277ABDECF1
:1016B800048BE0EE077AB0EE670A38BD88EE896AD7
:1016C8009FED2E7ADFED2C7AF0EE006AA0EE060A86
:1016D800A0EE267A37EEC70AD5E760EE007A9FEDCE
:1016E800196A9FED197AF7EE006A9FED1A4AA7EE7C
:1016F800867ADFED173A9FED156A9FED185AE7EEE7
:10170800863ADFED154A9FED166ADFED175AA7EE08
:10171800274A9FED147ABDEC048BE3EEA74AA4EEAA
:10172800275AE4EEA75AA5EE276AE5EEA76AA6EEC1
:10173800277A67EE277A87EEA67AA0EE070A38BDE1
:10174800CAF2497108EF1138047F4F3A2EC69D3D01
:10175800613330BF461124BD2D570140A80A4E3EC3
:1017680090B0A6BEABAA2A3E39D119C09999793F43
:10177800DB0F493F2EBD3BB3DB0FC93F2EBD3B33CB
:1017880010B582B0CDED010A8DED000ADDE9001239
:1017980022F00040B0F1FF4F2ADC21F00043B3F102
:1017A800FF4F25DCB2F17E5F46D0941704F00204A7
:1017B80044EAD1748BB1B0B3B0F1FF4F20D0B3F18C
:1017C800FF4F30D01B1ADB153C2B3ADC002A4CDAD1
:1017D8003C334ADA9FED3C0A35E0022C15D0032C45
:1017E8009FED3A0ADDED007A00FE270A02B010BD2F
:1017F800DDED017A9DED007A37EE870A02B010BD63
:10180800B3F1FF4F4DD0022C03D19FED310A02B046
:1018180010BD032C26D0012C9FED2E0ADFED2A7A6D
:1018280000FE270AE2E70029DFED2B7A9FED2B0A5D
:1018380020FE270A02B010BD02B0BDE8104001F03A
:1018480067BF9FED260A012C24D0022C19D0002C4A
:10185800CCD09FED237ADFED1E7A30EE070A30EE0A
:10186800670AC3E79FED190AC0E7009B9DED010ACF
:1018780007EE903A87EE800A02F01CF801F048FF64
:10188800E1E79FED177ADFED127A30EE070A37EEBF
:10189800C00AABE710EE103A03F1004300EE103A2D
:1018A800A4E7022C0CD0032C07D0012C9FED0D0AC5
:1018B800DFED0D7A00FE270A98E79FED0C0A95E701
:1018C8009FED0B0A92E700BF00000000DB0F49C044
:1018D800DB0F494000000080DB0FC9BFDB0FC93FA9
:1018E8002EBDBB33DB0F49BFDB0F493FE4CB16C02E
:1018F800E4CB164010EE103A8B4A70B523F0004442
:1019080086B00546944268DD884A10EE106A944213
:101918001ADC002B24F00F04DFED857A854A40F3AA
:10192800E780944270EE677A66D09FED837A012053
:1019380077EEC76A77EEE67AC5ED006A77EEC77A82
:10194800C5ED017A06B070BD7C4A94425CDDB4F105
:10195800FF4F49DAE215DFED7A6A863AA4EBC25303
:1019680007EE903ABDEEE77AB8EEC77A77EEC77A17
:101978008DED037A67EEA67ABDEEE77AB8EEC77A00
:1019880077EEC77A8DED047A67EEA67AF5EE407A9F
:10199800CDED057AF1EE10FA40F09780B5EE407A79
:1019A800F1EE10FA14BF02230123664902200191C7
:1019B8002946009003A800F07BFF002EC2DA95EDBF
:1019C800007A4042D5ED017AB1EE477AF1EE677AB6
:1019D80085ED007AC5ED017AB4E70022002085ED97
:1019E800000A6A6006B070BD70EE407A0020C5ED4E
:1019F800017AC5ED007AA5E7DFED536A01209FED76
:101A0800537A77EEE67A93E701F054FFB6EE007A60
:101A1800DFED4F6ADFED465AA0EE267ADFED467A13
:101A2800BDEEC77AF8EEC76A17EE100A1F28B1EEA6
:101A3800666A66EEA77AA6EE250A1EDC454A411EAE
:101A480024F0FF0330EE677A52F82120934216D033
:101A580085ED007A30EE470A002E30EE670A85EDF4
:101A6800010ABFF66FAFB1EE477A4042B1EE400AC5
:101A780085ED007A85ED010A64E730EE677A17EEA6
:101A8800103AE415C3F3C753E31A082BE0DDF0EE70
:101A9800405ADFED2D7A9FED2D7AE6EE275A30EE8B
:101AA800650AA6EE270AF0EE407AD6EE877A35EE7A
:101AB800E77A17EE103AC3F3C753E41A192C06DC79
:101AC80085ED007AB0EE650AC4E703236DE7B0EE52
:101AD800650A9FED217A9FED215AA6EE070A75EE59
:101AE800C07AE6EE077AD6EE857A30EE677AAFE707
:101AF800944270EE277A0ED09FED0F7A4FF0FF30A8
:101B080077EE876A77EEE67AC5ED006A77EE877A30
:101B1800C5ED017A16E7DFED0C6A4FF0FF309FED57
:101B28000B7A77EEA67AEBE7D80F493FE3CB16405E
:101B3800800FC93FD00FC93F43443537800F494311
:101B480000008043E8EFFE0F0044353708A3852ED8
:101B580084F9223F68EFFE0F00A3852E32318D24D1
:101B6800B1EEC00A704700BF2DE9F04F57EC106B7B
:101B780027F00049B9F1795F2DED028BB0EE418A6B
:101B8800F0EE618A83B072DA10EE100A394602F07C
:101B980087FB002800F0F68032463B46304639463F
:101BA80002F0CEF804460D467BA3D3E9002302F0E9
:101BB800C7F87BA3D3E9002301F00CFF22462B468C
:101BC80002F0BEF878A3D3E9002301F001FF224612
:101BD8002B4602F0B5F876A3D3E9002301F0FAFE0C
:101BE80022462B4602F0ACF873A3D3E9002301F098
:101BF800EFFE22462B4602F0A3F871A3D3E9002397
:101C080001F0E8FE22462B4602F09AF882468B46FF
:101C18000022714B2046294602F092F8524680462F
:101C280089465B462046294602F08AF804460D4656
:101C38003046394653EC182B02F082F802460B4620
:101C48002046294601F0C4FE02460B464046494656
:101C580001F0BEFE02460B460020604901F0B8FEC6
:101C680041EC100B03B0BDEC028BBDE8F08F10EE19
:101C7800102A10EE100A3B46394602F061F8044675
:101C88000D4645A3D3E9002302F05AF844A3D3E94B
:101C9800002301F09FFE22462B4602F051F842A392
:101CA800D3E9002301F094FE22462B4602F048F8BF
:101CB8003FA3D3E9002301F08DFE22462B4602F014
:101CC8003FF83DA3D3E9002301F082FE22462B46CC
:101CD80002F036F83AA3D3E9002301F07BFE2B4645
:101CE800224602F02DF83E4B82468B4699458FDD01
:101CF8003C4B99453DDC0022A9F5001300203749EB
:101D08009046994601F064FECDE900010022324B6D
:101D18002046294602F014F842464B4601F058FE88
:101D28005246804689465B462046294602F008F816
:101D380004460D463046394653EC182B02F000F89D
:101D480002460B462046294601F042FE02460B4653
:101D58004046494601F03CFE02460B46DDE90001DB
:101D680001F036FE41EC100B03B0BDEC028BBDE870
:101D7800F08F9FED157B4FF00008DFF86C908DED2C
:101D8800007BC3E79FED120B03B0BDEC028BBDE8EF
:101D9800F08F00BFAFF30080D43888BEE9FAA8BD41
:101DA800C4B1B4BD9EEE213EAD529C804F7E923EA2
:101DB8009015CB19A001FA3E7751C1166CC1563F58
:101DC8004C5555555555A53F000000000000E73F0C
:101DD800000000000000F03F0000E03F0000F03F7E
:101DE8003233D33F0000E93F0000D23F000000003B
:101DF8002DE9F04F1C46ADF5197D12F1140F0B912A
:101E080004F1FF3108930391B14BA299049053F860
:101E180021300593C0F2C182D31EAE4981FB030174
:101E2800DB17C3EBA10307930133A3EB8303DB00A9
:101E3800D318079A0693039BD61A059A12EB030840
:101E480014D408F1010820AF00240025B044DDF8BF
:101E58008C92002E2046294603DB59F8260001F013
:101E680005FF01364645E7E80201F2D1059B002B44
:101E7800089B4FEAC303019329DB049A20A90DF5B7
:101E8800E07A02EB030801EB030972AA059B02EB57
:101E9800C30B039B002BC0F29E814D46049C002679
:101EA800002775E90223F4E8020101F049FF024620
:101EB8000B463046394601F08DFD444506460F462F
:101EC800EFD109F10809EAE80267DA45E1D1059995
:101ED800019A04988B00019102440BA89346A3F140
:101EE8000802C3180A930CAB13440993019A98A9E2
:101EF800002A01EBC20353E9284529DD0DF5E07AF4
:101F08000DF130090AEBC2080022734B204629461E
:101F180001F016FF02F0C4F901F0A8FE00226F4B91
:101F280006460F4601F00CFF02460B46204629469E
:101F380001F04EFD02F0B4F9394649F8040B304679
:101F480078E9022301F046FD0446D0450D46DBD171
:101F5800DDF8189045EC104B484601F049FB00228B
:101F68004FF07F5310EE100A55EC104B294601F044
:101F7800E7FE41EC100B01F0B7FA0022584B51EC88
:101F8800100B01F0DDFE02460B462046294601F003
:101F98001FFD0D46044602F083F9804601F066FEF7
:101FA8000B4602462946204601F012FD4B460646DE
:101FB8000F46002B40F39680019A0CA9C9F118032B
:101FC800C9F11705013A51F8221041FA03F000FA55
:101FD80003F38044CB1A0CA943FA05F541F82230E3
:101FE800002D00F38980002200233046394602F094
:101FF8000FF9002800F097820199059B01F1FF393C
:102008004B4510DC6FF0404300220A980B440CA9A2
:1020180001EB830353F80419834242EA0102F9D120
:10202800002A40F0E280059B0CAA013B52F82330BD
:10203800002B40F0CB80099A012352F80419013390
:102048000029FAD001994A1CCB1891460293079BA4
:102058006FF0404A0199D31808989A44014420AB7C
:1020680003EBC105A39B03EB8A0A70AB03EBC20326
:1020780001935AF8040FA84601F0F8FD0B4603999E
:1020880002460029E8E802231FDB049C00260027FB
:1020980001E075E90223F4E8020101F051FE02466D
:1020A8000B463046394601F095FC5C4506460F461E
:1020B800EFD1019B09F101094546E3E80267019365
:1020C800029B9945D5DD019310E700260027F0E72C
:1020D80000F3FE0FABAAAA2A0000703E0000704170
:1020E8000000204069D1019B0CAA013B52F8235003
:1020F800ED15002D7FF777AF019B08F10108002B44
:1021080040F30F820C9C002C3AD1019B012B09D083
:102118000CA9012251F8044F531C9CBB1A46019B81
:102128009342F7D1069B002B0EDD012B00F01A819C
:10213800022B09D1019B0CA95A1E0CAB53F8223073
:10214800C3F3150341F82230022D7FF44CAF324619
:102158003B460020984901F03BFC06460F46002C00
:102168003FF441AF06989FED900B01F041FA3046DD
:10217800394653EC102B01F02BFC06460F4632E78C
:10218800012300220CA9C4F1807441F8224001996E
:10219800994210DD0CA80CAA52F8232000EB830307
:1021A80000EB81006FF07F4100E01A688A1A43F85B
:1021B800042B8342F9D10124B4E700227F4B02F0BB
:1021C80045F8002840F0D98005460CE7019B5A1CC9
:1021D800914602923BE70026002709F10809EAE840
:1021E8000267DA457FF455AE71E6069A0CABCDF876
:1021F8001C80183A53F829300495069273B9704B2D
:10220800019919440B460CA901EB830353F80419EF
:1022180009F1FF39183A0029F8D0069206989FED7F
:10222800620B01F0E5F9B9F1000F55EC104BC0F263
:10223800DA814FEAC90370AA09F101064FF0000AD2
:1022480002EB030806930CABDFF878B108F1080736
:1022580003EB860656F8040D01F008FD22462B46CE
:1022680001F06EFD5B46524667E9020120462946A9
:1022780001F066FD0CAB04460D469E42EAD148AB20
:10228800C3464FF0000A0393CDE90139DDF81490F5
:10229800B9F1000F2BDBDFF830815D460024002602
:1022A800002743A3D3E9002303E0544510DCF8E8F2
:1022B80002230134F5E8020101F042FD02460B4613
:1022C8003046394601F086FBA14506460F46ECDA52
:1022D800029AABF1080B019B9245E3E80267019370
:1022E8000AF1010306D0B9F1000F9A46D3DA0026A5
:1022F8000027EDE7A29BDDF80890032B2BD8DFE839
:1023080013F0F500E400E400670048AB0024002562
:10231800039303992B462246D1E9000101F058FBAB
:10232800049B002B40F03E810B9BB9F1000FC3E9E1
:1023380000450DDD4AAD01240134F5E8022301F022
:1023480049FBA145F8DA049B13B101F10043194692
:102358000B9BC3E90201079B03F007000DF5197DEC
:10236800BDE8F08F019B0CA95A1E0CAB53F8223024
:10237800C3F3160341F82230E6E6019B08F1010891
:102388000225002B3FF7BEAE32463B4600200A49E5
:1023980001F01EFB06460F4625E600216FF01703E5
:1023A800079145E5AFF30080000000000000F03F12
:1023B80000000040FB21F93F0000F03F0000E03F33
:1023C800FEFFFF3F0000703E18F3FE0F48AB03937B
:1023D800B9F1000F40F31981039A4FEAC90302EBE0
:1023E800C9080193D8E900AB78E9026752465B4611
:1023F8003046394601F0EEFA04460D4602460B46D1
:102408003046394601F0E4FA5B465246AB4601F0E5
:10241800E1FA039BA2464345C8E90201C8E9004521
:10242800E2D1B9F1010F40F3F0806FF06042019BF7
:1024380003990DF5947A4A440B44D20002F1080B33
:102448000192D3E900678B4432463B467BE9028917
:102458004046494601F0BEFA04460D4602460B4680
:102468004046494601F0B4FA32463B46264601F05A
:10247800B1FADA452F46CBE90201CBE90045E3D1B1
:10248800019C0020039B0021103403F110051C441B
:1024980074E9022301F09EFAA542F9D1039C049E37
:1024A800D4E90023D4E90245002E40F086800B9E33
:1024B800C6E90023079BC6E9040103F00700C6E943
:1024C80002450DF5197DBDE8F08F069E0024039F97
:1024D800002508363E442046294676E9022301F0C5
:1024E80079FA0446B7420D46F5D112E7069C00205A
:1024F800039D002108342C4474E9022301F06AFA90
:10250800A542F9D1049B13B101F1004319460B9B75
:10251800C3E90001079B03F007000DF5197DBDE82D
:10252800F08F0024FEE5069CCDF81C8060420495DF
:1025380047EC106B01F05CF8002210EE100A344BE7
:1025480057EC106B394601F081FE08B318340022AD
:10255800304B30463946069401F0F2FB019D01F0FC
:102568009FFE044601F082FB0022294B05F1010978
:1025780001F0E6FB0B4602463946304601F028FAE0
:1025880001F08EFE0CAB43F8250043F8294045E6E0
:1025980030463946019C01F083FE0CAAA14642F858
:1025A80024003BE6224605F100430B9CB9F1000FDD
:1025B800C4E900233FF7BEAEC7E603F1004701F1C7
:1025C80000430B992646944605F10044C1E90403EB
:1025D800079B03F00700C1E900C7C1E902640DF5D4
:1025E800197DBDE8F08FA29B032B3FF6B4AE01A284
:1025F80052F823F00D26FE0F1323FE0F1323FE0FB0
:10260800D523FE0F002000217CE70020002145E7AC
:10261800000070410000703E2DE9F04F55EC104B62
:1026280025F000438246B3F1795F2DED028BB0EEC1
:10263800418AF0EE618A83B007DA10EE100A294663
:1026480001F02EFE002800F08E8022462B46204600
:10265800294601F075FB06460F4602460B46204602
:10266800294601F06DFB804689463046394645A328
:10267800D3E9002301F064FB44A3D3E9002301F06C
:10268800A7F932463B4601F05BFB42A3D3E900239E
:1026980001F0A0F932463B4601F052FB3FA3D3E9D3
:1026A800002301F095F932463B4601F049FB3DA372
:1026B800D3E9002301F08EF9CDE90001BAF1000F4A
:1026C80037D000222E4B51EC180B01F039FB824613
:1026D8008B4640464946DDE9002301F031FB0246BE
:1026E8000B465046594601F073F932463B4601F015
:1026F80027FB53EC182B01F06BF906460F464046B2
:1027080049461DA3D3E9002301F01AFB02460B46F4
:102718003046394601F05EF902460B462046294606
:1027280001F056F941EC100B03B0BDEC028BBDE88B
:10273800F08F02460B463046394601F001FB0EA3E6
:10274800D3E9002301F044F942464B4601F0F8FA78
:1027580022462B4601F03EF941EC100B03B0BDECCC
:10276800028BBDE8F08F45EC104B03B0BDEC028B3B
:10277800BDE8F08FAFF30080495555555555C53F15
:102788000000E03F7CD5CF5A3AD9E53DEB9C2B8A37
:10279800E6E55A3E7DFEB157E31DC73ED561C11936
:1027A800A0012A3FA6F810111111813F10EE103A2E
:1027B80023F00043B3F1485F2CDAFDEEC07A17EE40
:1027C800903A002B60D020EE007ADFED317A9FED51
:1027D800315ADFED315AA7EE275A9FED306ADFED07
:1027E800307ADFED306AE7EE055AA7EE256AE7EEA4
:1027F800067AE7EE276A66EE876A60EEC00AB6EEEA
:10280800006AF7EE007AE7EE260AD7EE060A37EEF8
:10281800E00A704720EE007ADFED1D7A9FED1D5A21
:10282800DFED1D5AA7EE275A9FED1C6ADFED1C7AD3
:10283800DFED1C6A1C4A9342E5EE075AA5EE876A4B
:10284800E6EE077AE7EE876A66EE876AD5DD174A0D
:10285800934214DC03F17F43B7EE006A07EE903A27
:1028680036EE676A60EEC00AF6EE005AE7EE260A10
:10287800D7EE257A77EEE07A36EE670A7047B6EE3D
:10288800076AF5EE027AEDE7B7EE000A704700BF77
:102898004ED747ADF6740F317CF293B4010DD037A3
:1028A800610BB6BAABAA2A3D9999993E0000483FF8
:1028B8002DE9F04F2DED048BDBB01C4681460493C7
:1028C80004F1FF38D44B07916899099253F82150C5
:1028D800111DC0F27482D31E00F1F182DB10039344
:1028E8000133DB00089315EB0801DDE90823A3EBAE
:1028F80002030693039BA3EB080314D401311EAA19
:102908009FEDC87A19446998002BF0EE477A05DBE9
:1029180050F8234007EE904AF8EEE77A0133E2ECEC
:10292800017A8B42F0D1049B002D4FEA850A4FEAC9
:1029380083041DDB1EAB09EB040146A81E1947AB37
:1029480003EB0A07B8F1000FC0F2878132464B4605
:10295800DFEDB47AF3EC016A32ED017A8B42E6EEF0
:10296800877AF7D1E0EC017AB84206F10406E9D19A
:10297800AAF108030AAF09AA0095FB184C4492442F
:1029880046AE05932B469FEDA59ADFEDA58A069DD9
:1029980099005AAA002B0A4412ED140A16DD06EB18
:1029A8008302384660EE097A72ED016AB0EE407A29
:1029B800B242FDEEE77AF8EEE77AA7EEE87A37EE6C
:1029C800A60ABDEEC77AA0EC017AEBD12846CDE97C
:1029D800011300F081FFB0EE408AB4EE000A28EE41
:1029E800000A00F06FFFF2EE007A002DA0EE678A71
:1029F800DDE90113FDEEC89AF8EEE97A38EE678A48
:102A080040F38180581EC5F10802C5F1070B57F83D
:102A180020C04CFA02FE0EFA02F2019219EE902A38
:102A2800724409EE902A019AACEB020242FA0BFBBF
:102A380047F82020BBF1000F6FDCB5EE408AF1EEBD
:102A480010FA40F0AA8003F1FF3C009A62450EDCC0
:102A58006FF0404200211A4407EB820252F8040941
:102A6800524541EA0001F9D1002940F0FF80009A5F
:102A7800013A57F82220002A40F0EA80059A0120FE
:102A880052F8041901300029FAD003F1010E184454
:102A9800F446039A6FF0404B0499724406EB8E0E8D
:102AA8000B4493441EAA02EB8302699B03EB8B0B36
:102AB8005BF8043F1146B8F1000F07EE903AF8EEC4
:102AC800E77AE1EC017A14DB4B469FED567A01E098
:102AD80072ED017AF3EC016AA342A6EEA77AF7D168
:102AE8000CF1010CAEEC017A0A468445E0DD0346A0
:102AF8004EE70CF1010C9FED4B7A0A468445AEEC8B
:102B0800017AD5DDF3E740F098805A1E57F8222065
:102B18004FEA222BBBF1000F8FDD19EE902A002B14
:102B280002F1010209EE902A40F3CC8138680028AE
:102B380062D1012B0BD0BE464FF0010C5EF8040F9A
:102B48000CF1010200285AD193429446F6D1002D87
:102B58000BDD012D00F01F81022D06D1591E57F8FB
:102B6800212002F03F0247F82120BBF1020F7FF439
:102B780064AFB7EE000A30EE488A00283FF45DAF34
:102B88002846019300F0A8FE38EE408A019BB5EE76
:102B9800408AF1EE10FA3FF456AF0193B0EE480ABE
:102BA800009DD846DDE90832981A00F095FE9FEDA1
:102BB8001C7A019BB4EEC70AF1EE10FAC0F28481C8
:102BC800DFED167A03F1010B069A60EE277A0832D8
:102BD800FDEEE77A0692F8EEE77AA7EEC70AFDEE71
:102BE800E77ABDEEC00A10EE102A47F8232017EE48
:102BF800903A47F82B304FE001224FF0000CC0F517
:102C08008070934247F82C0015DD57F822003944AC
:102C180007EB820209E000BF50F3FE0F0000803B83
:102C280000008043000000001068C0F1FF0042F877
:102C3800040B8A42F8D1012089E7F6EE007AB4EE57
:102C4800E78AF1EE10FA80F2AE804FF0000BF4E65E
:102C580003F1010EF44670461BE75FED0E7A043669
:102C6800E0EC017AB8427FF46DAE81E60699D84669
:102C780057F82C20E3460839009D069162B9B04AFE
:102C88001A4407EB82030A4653F804190BF1FF3B79
:102C9800083A0029F8D006920698B7EE000A00F024
:102CA8001BFEBBF1000FC0F236814FEA8B0446AB26
:102CB8009FEDA47A261D1C44BB19221D73ED017AD1
:102CC800F8EEE77ABB4267EE807A20EE070A62EDFB
:102CD800017AF3D10DF1C80C002D4FF000009FEDE3
:102CE8009A6A67461DDB99492246B0EE467ADFEDBF
:102CF800987A002303E0834208DCB1EC017A0133BF
:102D0800F2EC016A9D42E6EE877AF4DA5845E7EC80
:102D1800017AA4F1040400F101030CD0002D184637
:102D2800E1DADFED8B7A5845A4F1040400F10103E0
:102D3800E7EC017AF2D1689B032B23D8DFE803F094
:102D4800AE9C9C44DFED827A43469DED327A37EEA5
:102D5800677A002B40F0C080079BBBF1000FC3EDE2
:102D6800007A0CDD33AA01230133F2EC017A9B458A
:102D780037EE277AF8DA43460BB1B1EE477A079B6C
:102D880083ED017A19EE903A03F007005BB0BDECD1
:102D9800048BBDE8F08F591E57F8212002F07F02FE
:102DA80047F82120E1E619EE902A002B02F10102F2
:102DB80009EE902A40F3A8804FF0020BB6E60823EC
:102DC8000893002303938EE5BBF1000F40F3B58011
:102DD8005AAB4FEA8B020DF1C80C99180CEB8B0318
:102DE80051ED286A73ED017A37EEA67A9C4577EEA5
:102DF800C77A83ED007A77EEA67AF0EE476AC3EDDC
:102E0800017AEFD1BBF1010F40F397806FF0404397
:102E18005AA95B440A4433A99B0052ED286A1A1D3B
:102E2800624472ED017A37EEA67A914277EEC77A5C
:102E380082ED007A77EEA67AF0EE476AC2ED017A63
:102E4800EFD108330CF10802DFED417A9C443CEDE8
:102E5800017A624577EE877AF9D14346DDED326A29
:102E68009DED337A002B41D1079BC3ED006A83EDBA
:102E7800017AC3ED027A85E76644DFED357A36EDEF
:102E8800017AB44577EE877AF9D19DED327A4346D7
:102E980037EE677A002B3FF45FAF1DE06644DFED45
:102EA8002C7A36ED017AB44577EE877AF9D1434624
:102EB8000BB1F1EE677A079BC3ED007A62E7134620
:102EC80004330BE5002042E6BDEEC00A9B4610EE37
:102ED800102A47F82320DFE6F1EE677A079BBBF15B
:102EE800000FC3ED007A3FF73DAF46E7F1EE666AA3
:102EF800079BB1EE477AF1EE677AC3ED006A83ED7E
:102F0800017AC3ED027A3DE7F7EE007A4FF0020B43
:102F180037EEC88A91E5689B032B3FF633AF01A2D1
:102F280052F823F03D2FFE0F4D2DFE0F4D2DFE0FB5
:102F3800D12DFE0FDFED067AB9E7DFED057A8CE7D4
:102F4800FEFFFF3F0000803B0000C93F60F3FE0F1B
:102F58000000000010EE103A23F00043B3F1485F80
:102F680004DAFDEEC07A17EE903A5BB360EE007AB1
:102F78009FED157ADFED155A9FED156AE7EE875A32
:102F8800DFED146A9FED147A20EE275AA5EEA76AA2
:102F9800E6EE276AA6EEA77A30B9DFED106AE7EE0B
:102FA800876AA6EE850A704727EE457ADFED0C6A38
:102FB800B6EE006AA0EE867AD7EE270AE5EE260A74
:102FC80030EE600A704700BFD3C92E2F342FD7B216
:102FD8001BEF3836010D50B98988083CABAA2ABEC8
:102FE800ABAA2A3E08B510EE103AB0EE407A23F0AC
:102FF8000042B2F1465F0FDAFDEEC07A17EE901A82
:10300800F9B9431C134300F09D80012803D0FFEE5B
:10301800007A87EE870A08BD4E498A4211DD002BE7
:1030280003DAB1EE407AF1EE600ADFED4B7ADFEDBC
:103038004B6A37EEC77A76EEE07ADFED490A37EE6B
:10304800877A67EE076A9FED476A9FED472ADFEDAB
:10305800475A66EEA67ADFED461A9FED463A27EE06
:10306800261ADFED452AA7EE862A9FED444AE7EEA9
:10307800A51ADFED433A9FED435ADFED434A9FED32
:10308800436ADFED435AA2EE273A3249E1EEA72A16
:10309800DFED401A8A42A3EE274AE2EEA73AA4EEF1
:1030A800275AE3EEA74AA5EE276AE4EEA75AF0EE00
:1030B800467AB0EE606AE5EEA67AA7EE816AE6EE99
:1030C800260AE1EE210A37EE200A1DDC0128A2D0EB
:1030D800FFEE005A304B10EE102AF7EE007AC5EEDC
:1030E800806A1A4006EE102A36EE477A70EEC70A52
:1030F80016EE902A134000EE103AE6EE007AE0EE63
:10310800807AA7EEA60A08BD07EE900A20EE005ABC
:103118009B17F0EE005AF8EEE76A03F0020370EE30
:10312800267AC3F1010385EE276A07EE903AF8EE96
:10313800E77A76EE600A37EE607AE7EE656A26EEA1
:10314800A70A08BD00F0B6FBF7EE007A87EE800A02
:1031580008BD00BF3FA12C3FDA0F493F6821223349
:10316800000000005FAE9BB745F4A3388453D937FD
:103178007AC09538C8261A3AB937813916696B3B2F
:1031880048DEBE3AA427B33C1F37113C8988083E65
:10319800D10D5D3DABAAAA3E00F0FFFF0000000084
:1031A8002DE9F84F55EC104BC14B25F00046AA46C7
:1031B8009E4219DDBF4B9E4201DC0AD14CB122462A
:1031C8002B462046294600F005FC41EC100BBDE8D3
:1031D800F88FBAF1000F40F3BC8099A1D1E9000142
:1031E80041EC100BBDE8F88FB34B9E4200F3BD8055
:1031F800A3F1DE739E4240F39A804FF0FF3B2246D4
:103208002B462046294600F09BFD02460B46804689
:10321800894600F095FD06460F468BA3D3E90023A7
:1032280000F08EFD8AA3D3E9002300F0D3FB3246D9
:103238003B4600F085FD88A3D3E9002300F0CAFBD4
:1032480032463B4600F07CFD85A3D3E9002300F01D
:10325800C1FB32463B4600F073FD83A3D3E900234C
:1032680000F0B8FB32463B4600F06AFD80A3D3E984
:10327800002300F0AFFB42464B4600F061FD80465C
:103288008946304639467CA3D3E9002300F058FD2F
:103298007BA3D3E9002300F09BFB32463B4600F0BA
:1032A8004FFD79A3D3E9002300F092FB32463B4659
:1032B80000F046FD76A3D3E9002300F089FB3246EF
:1032C8003B4600F03DFD74A3D3E9002300F080FBEA
:1032D80032463B4600F034FD02460B46404649461E
:1032E80000F078FB22462B4600F02AFDBBF1FF3F99
:1032F80002460B4631D0714B03EBCB0BDBE90823BD
:1033080000F066FB22462B4600F062FB02460B46A5
:10331800DBE9000100F05CFBBAF1000FBFF655AF26
:1033280001F10043194641EC100BBDE8F88F5CA38E
:10333800D3E9002310EE100A294600F04BFB0022C7
:103348005F4B00F08DFF00283FF457AF2046294619
:103358003BE755A1D1E9000137E72046294600F0AF
:1033680037FB41EC100BBDE8F88F00F0B3F8554B74
:103378009E4255EC104B19DCA3F550239E4242DCCB
:1033880010EE102A2B4610EE100A294600F022FBF8
:1033980000224B4B4FF0000B00F01AFB00220646B0
:1033A8000F464FF080432046294615E0464B9E4283
:1033B8001DDC0022454B10EE100A294600F008FBE0
:1033C8000022424B06460F46204629464FF0020B84
:1033D80000F0B6FC00223A4B00F0FCFA02460B461D
:1033E8003046394600F0D6FD04460D4607E72B4621
:1033F80010EE102A0020364900F0CCFD4FF0030BE8
:1034080004460D46FBE610EE100A00222C4B294616
:1034180000F0DEFA06460F460022294B20462946D0
:103428004FF0010B00F0D6FA02460B4630463946FB
:1034380000F0B0FD04460D46E1E600BFAFF30080A2
:10344800182D4454FB21F93F11DA22E33AAD903F9D
:10345800EB0D76244B7BA93F513DD0A0660DB13FC3
:103468006E204CC5CD45B73FFF8300922449C23F2B
:103478000D5555555555D53F2F6C6A2C44B4A2BFF0
:103488009AFDDE522DDEAD3F6D9A74AFF2B0B33FB8
:10349800711623FEC671BC3FC4EB98999999C93F30
:1034A8009C7500883CE4377E182D4454FB21F9BFF5
:1034B800FFFF0F440000F07FFFFFDB3F88F3FE0FA4
:1034C8000000F03FFFFFF23FFF7F03400000F83F9E
:1034D8000000F0BF51EC100B10EE102A21F0004351
:1034E80043EC102B704700BF51EC100BF8B5C1F33B
:1034F8000A530C4610EE106AA3F2FF35132D30DC88
:10350800002D1EDB384F2F4107EA010303432DD05E
:1035180033A3D3E9002300F05DFA0022002300F072
:103528009FFE48B1002C04DA4FF4801343FA05F5E6
:103538002C4424EA070400262346324643EC102B89
:10354800F8BD27A3D3E9002300F044FA00220023A2
:1035580000F086FE0028EFD0002C29DB0026344638
:10356800EAE7332D05DDB5F5806F19D041EC100B76
:10357800F8BDA3F213434FF0FF37DF400742F5D001
:1035880017A3D3E9002300F025FA0022002300F056
:1035980067FE0028D0D0002C13DB26EA0706CBE70D
:1035A80010EE102A0B4600F015FA41EC100BF8BD8E
:1035B80024F000430D4A33430026B34218BF144693
:1035C800BAE7142D08D00123C5F1340503FA05F52F
:1035D800AE1928BFE418E0E70134DEE7AFF3008056
:1035E8009C7500883CE4377EFFFF0F000000F0BFA9
:1035F80038B553EC102BC3F30A511C46054681BB62
:1036080023F0004410EE101A214329D03C4C1946EF
:1036180000223C4B10EE100A00F092FBA542024635
:103628000B4616DB0C46C1F30A513639294440F2E1
:10363800FE70814221DC002945DC11F1350F34DAB6
:103648004CF250318D4218DC002B25A1D1E9000144
:1036580040DB23A3D3E9002300F072FB41EC100BFD
:1036680038BD40F2FF708142E0D110EE100A1946D1
:1036780000F0B0F941EC100B38BD002B1AA1D1E9CC
:10368800000107DB18A3D3E9002300F059FB41EC44
:10369800100B38BD16A1D1E9000113A3D3E900230B
:1036A80000F04EFB41EC100BF3E717483631204091
:1036B80040EA0153104600221946144B00F040FB23
:1036C80041EC100B38BD1048204040EA015343EC50
:1036D800102B38BD08A1D1E90001BAE7AFF300808B
:1036E80059F3F8C21F6EA5019C7500883CE4377E2B
:1036F8009C7500883CE437FE59F3F8C21F6EA5811B
:10370800B03CFFFF00005043FFFF0F800000903CDB
:1037180038B510EE105AF0EE407A25F00044B4F1B6
:10372800A14F0ADBB4F1FF4F55DC002DDFED4F7AD6
:103738009FED4F0A37FE800A38BD4E4B9C425CDC39
:10374800B4F1445F4ADB4FF0FF3267EEA76ADFED62
:103758004A5ADFED4A2A531C9FED496A26EEA67A9B
:103768009FED483ADFED483A9FED484AE7EE252AB3
:10377800DFED474AA7EE063A9FED465ADFED465A77
:103788009FED460A9FED466AE2EE873AA3EE074AA6
:10379800E3EE874AA4EE075AE4EE875AA5EE070A35
:1037A800A5EE876A20EE070AA6EE260A20EE270A6B
:1037B80020D03C4B002D03EB8203D3ED046A93ED3C
:1037C800007A30EE660A70EE677A37EE670AB3DA87
:1037D800B1EE400A38BD30EE000A38BD9FED327AAE
:1037E800F7EE006A30EE077AB4EEE67AF1EE10FAF8
:1037F800A9DD38BD37EEC00A38BD00F05BF82B4BA9
:103808009C4211DCA3F5D0039C4224DCB0EE007A84
:103818000022FFEE007A70EE076AE0EE077AB0EE5B
:10382800677AC7EE267A90E7214B9C420DDCB7EE0B
:10383800087A0222F7EE007A70EE476AE0EE077A1D
:10384800B0EE677AC6EE877A7FE7BFEE007A03228A
:10385800C7EE007A79E7F7EE007A012230EE677A50
:1038680030EE270AC7EE007A6FE700BFDB0FC93FCB
:10387800DB0FC9BFFFFFDF3ED769853C59DA4B3DF7
:1038880021A215BD6BF16EBD356B883D95879DBD39
:103898006E2EBA3D388EE3BD2549123ECDCC4CBEC6
:1038A800ABAAAA3EC8F3FE0FCAF24971FFFF973FC1
:1038B800FFFF1B4010EE103A23F0004300EE103AD1
:1038C800704700BFBBFE400A704700BF9FED010A6A
:1038D800704700BF0000C07F82B08DED010A019BD8
:1038E80033F0004229D0B2F1FF4F22D213F0FF4F3C
:1038F80027D19DED017ADFED2D7A2D4B67EE277AE2
:103908009842CDED017A3EDB019BC3F3C752193AC9
:103918000244FE2A19DD019B9FED260A002B9FED2C
:10392800267AF0EE407A20FE070A20EE270A02B037
:10393800704730EE000A02B070479DED010A02B0F0
:103948007047D20D0244FE2AE5DC002A13DC12F18E
:10395800160F1FDA4CF250339842019BDCDC9FEDC6
:10396800170A002B9FED167AF0EE407A20FE070A20
:1039780020EE270ADFE723F0FF4343EAC25300EEB5
:10398800103A02B070479FED0D0ADDED017A27EE7F
:10399800800AD0E7193223F0FF43DFED0A7A43EAC1
:1039A800C25307EE103A27EE270AC4E70000004C7E
:1039B800B03CFFFFCAF24971CAF249F16042A20D58
:1039C8006042A28D0000003381F0004102E000BF98
:1039D80083F0004330B54FEA41044FEA430594EAC7
:1039E800050F08BF90EA020F1FBF54EA000C55EA02
:1039F800020C7FEA645C7FEA655C00F0E2804FEAD3
:103A08005454D4EB5555B8BF6D420CDD2C4480EAB4
:103A1800020281EA030382EA000083EA010180EAE4
:103A2800020281EA0303362D88BF30BD11F0004F32
:103A38004FEA01314FF4801C4CEA113102D0404268
:103A480061EB410113F0004F4FEA03334CEA1333A3
:103A580002D0524263EB430394EA050F00F0A780BB
:103A6800A4F10104D5F1200E0DDB02FA0EFC22FAB6
:103A780005F2801841F1000103FA0EF2801843FAAA
:103A880005F359410EE0A5F120050EF1200E012A9B
:103A980003FA0EFC28BF4CF0020C43FA05F3C018D9
:103AA80051EBE37101F0004507D54FF0000EDCF152
:103AB800000C7EEB00006EEB0101B1F5801F1BD3FB
:103AC800B1F5001F0CD349085FEA30004FEA3C0CFF
:103AD80004F101044FEA445212F5800F80F09A80F5
:103AE800BCF1004F08BF5FEA500C50F1000041EBF9
:103AF800045141EA050130BD5FEA4C0C404141EBFD
:103B08000101013C28BFB1F5801FE9D291F0000FF7
:103B180004BF01460020B1FA81F308BF2033A3F1A6
:103B28000B03B3F120020CDA0C3208DD02F1140C9D
:103B3800C2F10C0201FA0CF021FA02F10CE002F1D8
:103B48001402D8BFC2F1200C01FA02F120FA0CFCD1
:103B5800DCBF41EA0C019040E41AA2BF01EB04511A
:103B6800294330BD6FEA04041F3C1CDA0C340EDC18
:103B780004F11404C4F1200220FA04F001FA02F35B
:103B880040EA030021FA04F345EA030130BDC4F119
:103B98000C04C4F1200220FA02F001FA04F340EA0E
:103BA8000300294630BD21FA04F0294630BD94F0BF
:103BB800000F83F4801306BF81F480110134013DA6
:103BC8004EE77FEA645C18BF7FEA655C29D094EA17
:103BD800050F08BF90EA020F05D054EA000C04BF95
:103BE8001946104630BD91EA030F1EBF0021002080
:103BF80030BD5FEA545C05D14000494128BF41F01F
:103C0800004130BD14F580043CBF01F5801130BD82
:103C180001F0004545F0FE4141F470014FF000000D
:103C280030BD7FEA645C1ABF194610467FEA655CBE
:103C38001CBF0B46024650EA013406BF52EA033560
:103C480091EA030F41F4002130BD00BF90F0000F4E
:103C580004BF0021704730B54FF4806404F132048A
:103C68004FF000054FF0000150E700BF90F0000F43
:103C780004BF0021704730B54FF4806404F132046A
:103C880010F0004548BF40424FF000013EE700BF3A
:103C980042004FEAE2014FEA31014FEA02701FBFCA
:103CA80012F07F4393F07F4F81F06051704732F0FC
:103CB8007F4208BF704793F07F4F04BF41F4002153
:103CC800704730B54FF4607401F0004521F00041B1
:103CD8001CE700BF50EA010208BF704730B54FF03B
:103CE80000050AE050EA010208BF704730B511F03C
:103CF800004502D5404261EB41014FF4806404F174
:103D080032045FEA915C3FF4D8AE4FF003025FEAF9
:103D1800DC0C18BF03325FEADC0C18BF033202EB7D
:103D2800DC02C2F1200300FA03FC20FA02F001FAD7
:103D380003FE40EA0E0021FA02F11444BDE600BF7A
:103D480070B54FF0FF0C4CF4E06C1CEA11541DBF29
:103D58001CEA135594EA0C0F95EA0C0F00F0DEF8F4
:103D68002C4481EA030621EA4C5123EA4C5350EAD9
:103D7800013518BF52EA033541F4801143F480132A
:103D880038D0A0FB02CE4FF00005E1FB02E506F0BB
:103D98000042E0FB03E54FF00006E1FB03569CF010
:103DA800000F18BF4EF0010EA4F1FF04B6F5007F16
:103DB80064F5407404D25FEA4E0E6D4146EB060688
:103DC80042EAC62141EA55514FEAC52040EA5E5011
:103DD8004FEACE2EB4F1FD0C88BFBCF5E06F1ED8BB
:103DE800BEF1004F08BF5FEA500E50F1000041EBF2
:103DF800045170BD06F0004646EA010140EA02009F
:103E080081EA0301B4EB5C04C2BFD4EB0C0541EAC0
:103E1800045170BD41F480114FF0000E013C00F3D5
:103E2800AB8014F1360FDEBF002001F0004170BDF9
:103E3800C4F10004203C35DA0C341BDC04F1140412
:103E4800C4F1200500FA05F320FA04F001FA05F29E
:103E580040EA020001F0004221F0004110EBD3706B
:103E680021FA04F642EB06015EEA430E08BF20EA97
:103E7800D37070BDC4F10C04C4F1200500FA04F33A
:103E880020FA05F001FA04F240EA020001F00041CC
:103E980010EBD37041F100015EEA430E08BF20EA3F
:103EA800D37070BDC4F1200500FA05F24EEA020E87
:103EB80020FA04F301FA05F243EA020321FA04F0B6
:103EC80001F0004121FA04F220EA020000EBD3706D
:103ED8005EEA430E08BF20EAD37070BD94F0000F6D
:103EE8000FD101F00046400041EB010111F4801FA1
:103EF80008BF013CF7D041EA060195F0000F18BF52
:103F0800704703F00046520043EB030313F4801F8D
:103F180008BF013DF7D043EA0603704794EA0C0F47
:103F28000CEA135518BF95EA0C0F0CD050EA41065D
:103F380018BF52EA4306D1D181EA030101F00041DA
:103F48004FF0000070BD50EA410606BF1046194602
:103F580052EA430619D094EA0C0F02D150EA01360E
:103F680013D195EA0C0F05D152EA03361CBF10464F
:103F780019460AD181EA030101F0004141F0FE41EE
:103F880041F470014FF0000070BD41F0FE4141F472
:103F9800780170BD70B54FF0FF0C4CF4E06C1CEA72
:103FA80011541DBF1CEA135594EA0C0F95EA0C0F27
:103FB80000F0A7F8A4EB050481EA030E52EA0335E2
:103FC8004FEA013100F088804FEA03334FF0805503
:103FD80045EA131343EA12634FEA022245EA111530
:103FE80045EA10654FEA00260EF000419D4208BFE1
:103FF800964244F1FD0404F5407402D25B084FEA8E
:104008003202B61A65EB03055B084FEA32024FF439
:1040180080104FF4002CB6EB020E75EB030E22BF96
:10402800B61A754640EA0C005B084FEA3202B6EB56
:10403800020E75EB030E22BFB61A754640EA5C0005
:104048005B084FEA3202B6EB020E75EB030E22BF95
:10405800B61A754640EA9C005B084FEA3202B6EB96
:10406800020E75EB030E22BFB61A754640EADC0055
:1040780055EA060E18D04FEA051545EA16754FEAB7
:1040880006164FEAC30343EA52734FEAC2025FEAD5
:104098001C1CC0D111F4801F0BD141EA00014FF064
:1040A80000004FF0004CB6E711F4801F04BF014335
:1040B8000020B4F1FD0C88BFBCF5E06F3FF6AFAE51
:1040C800B5EB030C04BFB6EB020C5FEA500C50F1E1
:1040D800000041EB045170BD0EF0004E4EEA113164
:1040E80014EB5C04C2BFD4EB0C0541EA045170BD6B
:1040F80041F480114FF0000E013C90E645EA060EAF
:104108008DE60CEA135594EA0C0F08BF95EA0C0FDC
:104118003FF43BAF94EA0C0F0AD150EA01347FF424
:1041280034AF95EA0C0F7FF425AF104619462CE7FB
:1041380095EA0C0F06D152EA03353FF4FDAE10465E
:10414800194622E750EA410618BF52EA43067FF4AF
:10415800C5AE50EA41047FF40DAF52EA43057FF43F
:10416800EBAE12E74FF0FF3C06E000BF4FF0010C4A
:1041780002E000BF4FF0010C4DF804CD4FEA410CAE
:104188007FEA6C5C4FEA430C18BF7FEA6C5C1BD07B
:1041980001B050EA410C0CBF52EA430C91EA030FFC
:1041A80002BF90EA020F0020704710F1000F91EA59
:1041B800030F58BF994208BF90422CBFD8176FEA27
:1041C800E37040F0010070474FEA410C7FEA6C5CF5
:1041D80002D150EA013C07D14FEA430C7FEA6C5CFC
:1041E800D6D152EA033CD3D05DF8040B704700BF28
:1041F8008446104662468C461946634600E000BF76
:1042080001B5FFF7B7FF002848BF10F1000F01BD47
:104218004DF808EDFFF7F4FF0CBF012000205DF812
:1042280008FB00BF4DF808EDFFF7EAFF34BF012097
:1042380000205DF808FB00BF4DF808EDFFF7E0FF30
:1042480094BF012000205DF808FB00BF4DF808ED81
:10425800FFF7CEFF94BF012000205DF808FB00BFE8
:104268004DF808EDFFF7C4FF34BF012000205DF8CA
:1042780008FB00BF4FEA410C7FEA6C5C02D150EAB0
:10428800013C0AD14FEA430C7FEA6C5C02D152EA46
:10429800033C02D14FF0000070474FF00100704717
:1042A8004FEA410212F5001215D211D56FF4787356
:1042B800B3EB625212D94FEAC12343F0004343EAF9
:1042C800505311F0004F23FA02F018BF40427047D4
:1042D8004FF00000704750EA013005D111F000405E
:1042E80008BF6FF0004070474FF00000704700BFF4
:1042F8004FEA4102B2F1E04324BFB3F5001CDCF100
:10430800FE5C0DD901F0004C4FEAC0024CEA507037
:10431800B2F1004F40EB830008BF20F00100704766
:1043280011F0804F21D113F13872BCBF01F0004069
:10433800704741F480114FEA5252C2F11802C2F19B
:10434800200C10FA0CF320FA02F018BF40F001001C
:104358004FEAC1234FEAD32303FA0CFC40EA0C00CE
:1043680023FA02F34FEA4303CCE77FEA625307D10B
:1043780050EA01331EBF4FF0FE4040F44000704742
:1043880001F0004040F0FE4040F40000704700BFDC
:1043980080F0004002E000BF81F0004142001FBFF2
:1043A8005FEA410392EA030F7FEA226C7FEA236CFB
:1043B8006AD04FEA1262D2EB1363C1BFD2184140F0
:1043C80048404140B8BF5B42192B88BF704710F086
:1043D800004F40F4000020F07F4018BF404211F029
:1043E800004F41F4000121F07F4118BF494292EA91
:1043F800030F3FD0A2F1010241FA03FC10EB0C00BD
:10440800C3F1200301FA03F100F0004302D5494249
:1044180060EB4000B0F5000F13D3B0F1807F06D3F6
:1044280040084FEA310102F10102FE2A51D2B1F1EE
:10443800004F40EBC25008BF20F0010040EA0300E3
:104448007047490040EB0000013A28BFB0F5000F63
:10445800EDD2B0FA80FCACF1080CB2EB0C0200FA19
:104468000CF0AABF00EBC25052421843BCBFD04068
:104478001843704792F0000F81F4000106BF80F4E2
:1044880000000132013BB5E74FEA41037FEA226CA5
:1044980018BF7FEA236C21D092EA030F04D092F070
:1044A800000F08BF0846704790EA010F1CBF0020A4
:1044B800704712F07F4F04D1400028BF40F0004001
:1044C800704712F100723CBF00F50000704700F021
:1044D800004343F0FE4040F4000070477FEA226248
:1044E80016BF08467FEA23630146420206BF5FEA19
:1044F800412390EA010F40F4800070474FF0000319
:1045080004E000BF10F0004348BF40425FEA000CDF
:1045180008BF704743F0964301464FF000001CE087
:1045280050EA010208BF70474FF000030AE000BFDD
:1045380050EA010208BF704711F0004302D540421B
:1045480061EB41015FEA010C02BF8446014600208D
:1045580043F0B64308BFA3F18053A3F50003BCFAA8
:104568008CF2083AA3EBC25310DB01FA02FC634455
:1045780000FA02FCC2F12002BCF1004F20FA02F25C
:1045880043EB020008BF20F00100704702F120024F
:1045980001FA02FCC2F1200250EA4C0021FA02F2B0
:1045A80043EB020008BF20EADC70704753B94AB9F0
:1045B800002908BF00281CBF4FF0FF314FF0FF3023
:1045C80000F0A0B9ADF1080C6DE904CE00F03AF89E
:1045D800DDF804E0DDE9022304B0704707EE900A35
:1045E800F5EEC07AF1EE10FA01D400F00BB8F1EE56
:1045F800677A08B517EE900A00F004F8404261EBBC
:10460800410108BDD0B5FFF743FB00220B4B06461E
:104618000F46FFF795FB00F077F90446FFF716FB06
:104628000022074BFFF78CFB02460B463046394603
:10463800FFF7CEF900F068F92146D0BD0000F03D43
:104648000000F0412DE9F047089D04468846002BFC
:104658007DD18A4217463FD9B2FA82F242B1C2F1FD
:1046680020009140974024FA00F0944040EA010865
:104678004FEA174C230C1FFA87FEB8FBFCF60CFB1D
:10468800168106FB0EF043EA0143984205D9FB1850
:1046980002D2984200F22481013E191AA3B2B1FB5A
:1046A800FCF00CFB101100FB0EFE43EA0144A6458A
:1046B80005D93C1902D2A64500F20F81013840EA1B
:1046C8000640A4EB0E0400261DB1D4400023C5E922
:1046D80000433146BDE8F08702B9FFDEB2FA82F244
:1046E800002A50D1CB1B4FEA174E1FFA87F8012634
:1046F800210CB3FBFEFC0EFB1C300B4608FB0CF92F
:1047080041EA004189450AD979182CBF01230023C1
:10471800894502D9002B00F0D9800CF1FF3CA1EBB0
:104728000901A3B2B1FBFEF00EFB101108FB00F863
:1047380043EA0144A04505D93C1902D2A04500F23C
:10474800C9800138A4EB080440EA0C40BCE78B425E
:1047580009D9002D00F0B1800026C5E900013046D6
:104768003146BDE8F087B3FA83F6002E46D18B4276
:10477800C0F0A680824240F2A3803046002DA8D027
:10478800C5E90048A5E79740C2F1200301FA02F005
:104798004FEA174ED94024FA03F31FFA87F89440DA
:1047A8000343B1FBFEF01E0C0EFB101100FB08FCCE
:1047B80046EA01418C4509D979182CBF0126002603
:1047C8008C4502D9002E00F093800138A1EB0C0132
:1047D8009BB2B1FBFEF60EFB161106FB08FC43EA82
:1047E80001418C4505D9791802D28C4500F28780A1
:1047F800013EA1EB0C0346EA004679E7C6F1200723
:1048080003FA06F402FA06FC01FA06FEFA4020FA58
:1048180007F8F94000FA06F3224348EA0E044FEA83
:1048280012484FEA144E1FFA82F9B1FBF8FA08FB56
:104838001A110AFB09F04EEA014E70450AD912EB2B
:104848000E0E2CBF01210021704501D9002952D03C
:104858000AF1FF3AAEEB000EA4B2BEFBF8F008FB7B
:1048680010EE00FB09F944EA0E4EF14505D912EBAA
:104878000E0E01D2F14538D8013840EA0A40AEEBB5
:10488800090EA0FB0C89CE4541464C4602D306D101
:10489800434504D20138B8EB0C0169EB020415B3A7
:1048A8005A1A6EEB040EF2400EFA07F72EFA06F3C8
:1048B80000261743C5E900730BE72E46284608E78C
:1048C800841A61EB03010120884657E7ACF1020C1A
:1048D800394424E702383C4434E702383C44EEE6E5
:1048E800023E3B44D9E62E46F3E602389644C4E736
:1048F800023839446AE7AAF1020A9644AAE7023E56
:10490800394476E7704700BF4A0011D212F5001209
:1049180011D20DD56FF47873B3EB62520ED44FEA0F
:10492800C12343F0004343EA505323FA02F070478F
:104938004FF00000704750EA013002D14FF0FF30CD
:1049480070474FF000007047002301461A4618468A
:1049580000F0A2BB014B1868704700BF043000206C
:1049680008B5074B044613B1002100F0EDFB054BD9
:104978001868836A03B19847204600F039FC00BFE5
:104988005151FE0FECF4FE0F38B50A4C0A4D641B6A
:10499800A4100AD06FF04043234405EB8305013C83
:1049A80055F804399847002CF9D1BDE838400CF087
:1049B8002BBF00BF5426FF0F5026FF0F70B50D4EBA
:1049C8000D4D761BB61006D00024013455F8043B73
:1049D8009847A642F9D1094E0CF010FF084D761BF6
:1049E800B61006D00024013455F8043B9847A64277
:1049F800F9D170BD4C26FF0F4C26FF0F5026FF0F34
:104A08004C26FF0F024B0146186800F02BB900BF77
:104A180004300020024B0146186800F0C9B800BFF6
:104A280004300020844641EA000313F0030349D10F
:104A3800403A23D30B6803604B6843608B688360FC
:104A4800CB68C3600B6903614B6943618B69836100
:104A5800CB69C3610B6A03624B6A43628B6A8362E8
:104A6800CB6AC3620B6B03634B6B43638B6B8363D0
:104A7800CB6BC36340304031403ADBD230320BD38A
:104A88000B6803604B6843608B688360CB68C360C6
:104A980010301031103AF3D20C3205D351F8043BE0
:104AA80040F8043B043AF9D2043208D0D2071CBFBC
:104AB80011F8013B00F8013B01D30B8803806046E5
:104AC800704700BF082A13D38B07B1D010F0030337
:104AD800AED0C3F10403D21ADB071CBF11F8013BA7
:104AE80000F8013BA4D331F8023B20F8023B9FE7D2
:104AF800043AD9D3013A11F8013B00F8013BF9D245
:104B08000B7803704B7843708B78837060467047DE
:104B1800F0B4860746D0541E002A3CD0CAB20346D9
:104B280002E014F1FF3436D303F8012B9D07F8D1C6
:104B3800032C29D9CDB20F2C45EA052545EA0545B0
:104B480033D9A4F1100603F1200703F11002360946
:104B580007EB061742E9045542E902551032BA42FA
:104B6800F8D1721C14F00C0F04F00F0603EB0212BC
:104B780013D0331F23F003030433134442F8045BB8
:104B88009342FBD106F003042CB1C9B21C4403F8CC
:104B9800011B9C42FBD1F0BC704734461346002CE5
:104BA800F3D1F8E714460346C2E71A462646E0E77B
:104BB800002941D038B551F8043C0C1F0546002B9C
:104BC800B8BFE41800F010FB254B196829B1A142C1
:104BD8000BD92268A018814228D0616028461C6041
:104BE800BDE8384000F002BB19464B68A3428CBFB1
:104BF80000220122002B08BF0022002AF4D10A68F3
:104C08008818A04219D024D82268A018834206D058
:104C180063604C602846BDE8384000F0E7BAD3E945
:104C280000030244C4E900234C60F3E7D1E9000122
:104C38000244C4E90021D1E770472068024488187B
:104C48000A608342E6D1D3E900030244C1E90023A4
:104C5800E0E70C2328462B60BDE8384000F0C6BAD0
:104C6800BC340020F8B5CD1C064625F003050835F0
:104C78000C2D38BF0C25002D3ADBA94238D82A4F15
:104C880000F0B2FA3A6852B113685B1B04D43FE0F3
:104C980023685B1B25D522465468002CF8D1796817
:104CA80000293BD02946304600F040F8431C28D064
:104CB800C41C24F00304A04205D0211A304600F099
:104CC80035F801301DD02560304600F08FFA04F128
:104CD8000B00231D20F00700C21A01D01B1AA35095
:104CE800F8BD0B2B09D8A242636815D05360EBE7D7
:104CF8000C2200203260F8BD144623601C44256055
:104D0800E2E70C233046336000F070FA0020F8BD6B
:104D18000B2BF1D8536814463B60D5E7304600F0BA
:104D280005F87860BEE700BFBC34002038B5002322
:104D3800064C05460846236004F0D0F9431C00D011
:104D480038BD2368002BFBD02B6038BD98C70020E6
:104D580080EA010C1CF0030F37D110F0030C20F08F
:104D6800030021F0030150F8042B08BF51F8043B5D
:104D78000ED08CF0030C6FF07F434FEACC0C23FA73
:104D88000CFC51F8043B42EA0C0243EA0C0300BF56
:104D9800A2F1013C9A4201BF2CEA020C1CF0803FB0
:104DA80050F8042B51F8043BF2D04FEA02604FEA66
:104DB8001222012828BFB0EB036F08BF1B0AF4D0EA
:104DC80003F0FF03000EC01A704710F0030F0AD05B
:104DD80010F8012B11F8013B012A28BF9A42F4D0A0
:104DE800A2EB030070474DF8045D50F8042B01F066
:104DF800030521F0030151F8043B022D26D04DD8BC
:104E080022F07F45B5EB132FA2F1013C2CEA020CEE
:104E18000DD11CF0803C08BF51F8043B0AD185EA4B
:104E28000205B5EB036F0CD150F8042BE8E74FEA05
:104E380013235BE03CF07F4C54D10B784FEA1265AA
:104E480054E04FEA126503F0FF034FE04FEA0245D2
:104E5800A2F1013C4FEA15452CEA020CB5EB134FC1
:104E680018D11CF0803C08BF51F8043B07D185EAF3
:104E78000205B5EB034F09D150F8042BE6E75FEACA
:104E88000C4C2FD10B884FEA12452FE04FEA034311
:104E98004FEA12454FEA134328E000BF02F0FF052E
:104EA800B5EB136FA2F1013C2CEA020C0DD11CF0FA
:104EB800803C08BF51F8043B0AD185EA0205B5EBEE
:104EC800032F0AD150F8042BE8E74FEA13630DE0EB
:104ED80012F0FF0F06D051F8043B4FEA122523F0D9
:104EE8007F4303E04FF0000020BC704705F0FF024D
:104EF80003F0FF00012828BF904204BF2D0A1B0AB7
:104F0800F4D0A2EB000020BC704700BF80EA010289
:104F1800844612F0030F4FD111F0030F32D14DF830
:104F2800044D11F0040F51F8043B0BD0A3F10132EA
:104F38009A4312F0803F04BF4CF8043B51F8043BFD
:104F480016D100BF51F8044BA3F101329A4312F075
:104F5800803FA4F101320BD14CF8043BA24312F07C
:104F6800803F04BF51F8043B4CF8044BEAD0234679
:104F78000CF8013B13F0FF0F4FEA3323F8D15DF82B
:104F8800044B704711F0010F06D011F8012B0CF8F3
:104F9800012B002A08BF704711F0020FBFD031F86B
:104FA800022B12F0FF0F16BF2CF8022B8CF80020F2
:104FB80012F47F4FB3D1704711F8012B0CF8012B75
:104FC800002AF9D1704700BF20F0030110F0030058
:104FD800C0F1000051F8043B00F1040C4FEACC0C7E
:104FE8006FF000021CBF22FA0CF213434FF0010CC1
:104FF8004CEA0C2C4CEA0C4CA3EB0C0222EA030200
:1050080012EACC1204BF51F8043B0430F4D0C2F1C8
:10501800000102EA0102B2FA82F2C2F11F0200EBB9
:10502800D200704770B440EA0104A30701D1032AF3
:1050380015D806468AB133460C78551E03F8014B3D
:1050480004B332442E4404E011F8014F03F8014B35
:10505800C4B19A42A6EB0305F6D170BC70470B4663
:105068000646194653F8045BA5F1013424EA050401
:1050780014F0803FDFD1043A46F8045B1946032A4E
:10508800EFD8D7E7002DE8D01D44002203F8012B04
:10509800AB42FBD170BC70472DE9F041264C82B081
:1050A800256815B36C681F2C43DC9846064698B1F2
:1050B800D5F8880040B3D0F800C1012740F8242073
:1050C80000EB8403022E07FA04F242EA0C07C0F848
:1050D8000071C3F8808011D0631C002002346B601B
:1050E80045F8241002B0BDE8F081144E144D266036
:1050F800EDB12C683546C6F88840D3E7D0F80431BE
:105108001A43C0F80421E7E70E4BCDE9001283B13A
:105118004FF48470FFF776FC58B100236C689C4606
:10512800C0E94033DDE90012C5F88800C5E7354617
:10513800B8E74FF0FF30D5E750350020C4340020E1
:10514800000000000D4AFE0F2DE9F04FDFF89480B3
:1051580083B00F464FF0010AD8F8005001908DB186
:105168006C68D5F88860013C0CD405F1080B67B170
:105178002EB106F1800353F82430BB4205D014F158
:10518800FF34F4D203B0BDE8F08F6B685BF82420DD
:10519800013BA34220D000234BF82430002AEED054
:1051A800D5F80490B6B10AFA04F3D6F800110B4208
:1051B80010D0D6F8040156F8241003420ED10198F5
:1051C80090476B68D8F800204B4501D1AA42D6D049
:1051D8001546C4E79047F4E76C60DFE70846904758
:1051E800EFE700BF50350020704700BF704700BF91
:1051F800FEE700BF4FF0FF3200F10803C0E90223C9
:105208004360036100230360704700230361704714
:1052180030B50C68631C0AD103695A684A6091600A
:105228008B605960086103680133036030BD00F189
:105238000802134652681568A542FAD9EDE70369D2
:10524800D0E901128A60416851605A68824204BFFD
:1052580082685A6000220261186801381860704735
:105268002DE9F843244BDFF8A8901D68234B04462A
:105278001F68234B0E46D3F80080D9F8000004308D
:10528800FFF7DDFF4B4658B9D9F800101D48D1F893
:105298002CC00121026801FA0CF122EA0102026025
:1052A800621C14D19EB1184A1868516881608C68D4
:1052B8001868C46018680430606018681B68043097
:1052C80088605A61136801331360BDE8F8831A686F
:1052D80019682C19546001F1040104D34046BDE853
:1052E800F843FFF795BF3846FFF792FF074B1A6858
:1052F800A24288BF1C60E8E76436002058350020C9
:105308005C350020E83500203C36002018360020A7
:1053180054350020064A13681968064B19B94FF02E
:10532800FF321A6070471268D2681268F9E700BF46
:105338005835002018360020F8B50E4C0E4F0F4E89
:10534800236803B9F8BD01F03BFFFB68DD68281D41
:10535800FFF775FF3368013B33602368013B236027
:1053680001F03CFF286B01F0A3FE284601F0A0FEE7
:10537800E6E700BFDC35002050360020D835002095
:1053880008B5054CFFF7D8FF2368012B01D901F0B8
:105398000BFF04F071F8F5E7603500202DE9F84FB0
:1053A80096008046DDE90A5A30460F46994601F0D4
:1053B800E9FD8346002800F0AA80602001F0E2FDA4
:1053C8000446002800F0A08060220021FFF7A0FB1F
:1053D8003246A5215846C4F830B0FFF799FB236B35
:1053E800043E1E4426F007062664002F40F09280F3
:1053F800052D05D940F265725449554809F04CF914
:10540800052D28BF0525271D3846E562E564FFF709
:10541800FCFEC5F1060504F11800FFF7F6FE4B4641
:1054280042463046216B2461A561646201F032FF77
:105438002060BAF1000F01D0CAF8004001F0C0FEA8
:10544800444B454E1A68DFF84C8101321A603268C5
:10545800002A6FD134601B68012B28D13F48FFF721
:10546800C9FE3F48FFF7C6FE3E48FFF7C3FE3E4869
:10547800FFF7C0FEDFF820913C48FFF7BBFE3C4D2C
:105488003C48FFF7B7FE4846FFF7B4FE2846FFF74B
:10549800B1FE3948FFF7AEFE3848FFF7ABFE384893
:1054A800FFF7A8FE374BC3F80090374B1D60012566
:1054B800364AE16A136801331360354A6364106839
:1054C80005FA01F3034313601423244A03FB012163
:1054D8004968A1608868E06047608F60E16A4B4373
:1054E800D1186161D1582944D15001F077FED8F81C
:1054F800003033B13368DA6AE36A9A4201D201F0C4
:1055080053FE2846BDE8F88F584601F0D1FD4FF00C
:10551800FF35F6E77B1E04F13402093713F8011F43
:1055280002F8011B197809B19F42F7D1002384F8CA
:105538003D305DE7D8F80030002BB8D13368DA6A1F
:10554800E36A9A4298BF3460B1E700BFF0F4FE0FF7
:105558000FF5FE0FD83500205435002060350020A7
:1055680074350020883500209C350020B035002097
:1055780000360020C4350020243600205036002094
:105588003C360020583500205C350020E4350020EA
:10559800E835002038360020EC3500202DE9F041B0
:1055A800044628B940F6C1121B491C4809F074F892
:1055B8001B4B1B68A34226D001F002FE194BD4F8FE
:1055C80028801F68184B65691E6801F007FE174B95
:1055D80098451AD0BD421AD0B54218D0144B9D42F6
:1055E80009D1A36A9BB994F85C30012B0CBF022047
:1055F8000320BDE8F0810F4B9D420AD0002D14BF57
:1056080001200420F5E70020F3E70120F1E702205C
:10561800EFE70420EDE700BFF0F4FE0F31F5FE0FD1
:1056280054350020583500205C35002024360020F1
:105638003C3600205036002010B5364886B003F0BE
:10564800D9F9354803F0D6F903AA1146334810F8BA
:10565800013B02F8013B002BF9D1314A3148CDE931
:1056680000325A22FFF79AFE044608B92E4904E090
:105678002D492E4B012C08BF19462D4803F0BAF9C5
:10568800012C1BD12B4803F0B5F901F0B5FB0446FA
:10569800254B2649012818BF1946274803F0AAF9BF
:1056A800012C0FD0254803F0A5F901342BD140F681
:1056B800BB622349234808F0EFFF24E0224803F0A7
:1056C80099F9EFE7214803F095F9214803F092F999
:1056D80001F0F6FE4FF0FF321E4B1F481A60002201
:1056E8001E4B1C601E4B1A6003F084F91D4B1E48AC
:1056F8001B685A6B1D4B1A6003F07CF901F002FE1F
:105708001B4803F077F91B4B1B481B6803F072F921
:1057180006B010BD46F5FE0F6DF5FE0F8CF5FE0FB9
:10572800143600208953FE0F37F5FE0F3EF5FE0FA5
:1057380091F5FE0FB8F5FE0FD7F5FE0F5DF7FE0FDA
:10574800F0F4FE0F94F7FE0FFEF5FE0F3CF6FE0F89
:105758007EF6FE0F18360020B5F6FE0F383600200C
:105768006436002054350020DDF6FE0F040000E00A
:1057780009F7FE0F68300020C5F7FE0F024A1368CC
:1057880001331360704700BFE0350020014B1868F3
:10579800704700BF64360020014B1868704700BF8F
:1057A800D83500202DE9F74F514B524A196811603E
:1057B800514A1268002A40F095801C6801341C6028
:1057C800A4B94E4D2B681B682BB141F272224C498B
:1057D8004C4808F061FF4C4B2A68196829601A6028
:1057E8004A4A136801331360FFF794FD48490020C3
:1057F8000B6801919C4207D2464B1B68002B18BFCF
:10580800012003B0BDE8F08F84464FF0010A4FF045
:1058180014083A4FDFF80CE13F4D3B681B6823B989
:105828004FF0FF33019A1360E6E73B68DB68DB68FB
:105838005A68944202D2019B1A60DDE7D3F81490AB
:10584800D3E9022696609A687260D9F804201E1D72
:10585800B24204BFDA68C9F80420C3F814C0D9F802
:105868000020013AC9F80020D3F82890B9F1000FB8
:1058780014D0D3E907128A60D96903F1180B516073
:10588800D9F804205A4504BF1A6AC9F80420C3F895
:1058980028C0D9F80020013AC9F80020DA6ADEF8F1
:1058A80000B00AFA02F908FB0252526849EA0B09E9
:1058B8009A60CEF80090D2F80890C3F80C90C9F816
:1058C80004609660DA6A08FB02F2AE185E61AE58B0
:1058D8000136AE50114A1668DA6AF36A9A4288BFEE
:1058E80001209AE70E4A002013680133136088E705
:1058F80064360020080000E0E0350020583500201C
:10590800F0F4FE0F18F8FE0F5C3500201C3600205E
:1059180018360020683600206035002054350020F5
:1059280020360020E83500202DE9F84F454C01F0DD
:1059380047FC23682BB940F69E724349434808F058
:10594800ABFE2368013B236023682BB1002401F0E0
:1059580045FC2046BDE8F88F3D4A1268002AF5D07C
:1059680099469846012614273A4D3B49DFF8F8E056
:10597800DFF8F0C048E0394BDB68DB68986AD3E9A8
:1059880007249460D3E907425460426803F1180A77
:10599800524504BF1A6A4260C3F828900268013A67
:1059A80002605869D3E90242A2609C6803F1040AC4
:1059B80054604268D5F800B0524504BFDA684260C6
:1059C800C3F814800268013A0260DA6A06FA02F043
:1059D80007FB0212526840EA0B009A602860906840
:1059E800D860C0F804A0C2F808A0DA6A7A43881818
:1059F8005861885801308850DEF80000DA6AC06AB9
:105A0800824201D9CCF80060144A1268002AB2D147
:105A18000BB1FFF77FFC124D2C6844B10127114EE2
:105A2800FFF7C0FE00B13760013CF9D12C600D4B87
:105A38001B68002B8AD00C4B01241B6801F0B4FBB7
:105A480085E700BFE0350020F0F4FE0F43F8FE0FB5
:105A5800D8350020E83500206035002024360020A5
:105A680020360020683600205435002070B50C46DA
:105A7800054628B94FF413621A491B4808F00CFE72
:105A88002CB940F631121749184808F005FEFFF7FF
:105A980075FE174B1E68174B1B68012B05D040F687
:105AA80039121049144808F0F7FD2A6810192CBF5C
:105AB80001240024B24228600BD934B9FFF734FF1F
:105AC80008B901F071FB204670BD864204D300245A
